:020000040800F2
:10000000005000202D2100087521000875210008EE
:100010007521000875210008752100080000000006
:10002000000000000000000000000000F176000861
:1000300075210008000000000179000849790008D6
:100040007521000875210008752100087521000838
:100050007521000875210008752100087521000828
:100060007521000875210008752100087521000818
:100070007521000875210008752100087521000808
:10008000752100087521000875210008E11E00088F
:10009000CD1E000875210008752100087521000893
:1000A00075210008752100087521000875210008D8
:1000B000F51E00087521000875210008752100084B
:1000C00075210008752100087521000875210008B8
:1000D00075210008752100087521000875210008A8
:1000E0007521000875210008752100080000000036
:1000F0000000000000000000000000000000000000
:0C01000000000000000000005FF808F1A3
:1001100010B5054C237833B9044B13B10448AFF341
:1001200000800123237010BD30000020000000007B
:10013000C47A000808B5034B1BB103490348AFF369
:10014000008008BD0000000034000020C47A0008D0
:1001500080B500AF02F010F801F073FF01F0C0FBB2
:1001600001F0D4FA01F046FB01F00EFB1B4802F04F
:1001700093FC0346002B01D001F0BEFF0C21184870
:1001800004F00EFE0346002B01D001F0B5FF144B26
:100190001B6800221A6400224FF40061114803F02A
:1001A0004AFF01F085FA00F021F80F4802F0E6FE60
:1001B0000346002B01D001F09FFF03210A4803F002
:1001C0001CFA0346002B01D001F096FF06F012FD49
:1001D00001F092FF0023184680BD00BF4C000020B4
:1001E000A4000020000C01407C00002080B58AB0F3
:1001F00004AF00230093624B624A0C21102005F0EB
:1002000049FD0346604A1360002300935F4B604A38
:100210000E21102005F03EFD03465E4A13600023C8
:1002200000935D4B5D4A2021012005F033FD03461C
:100230005B4A1360544B1B68002B0BD14FF05003EB
:1002400083F31188BFF36F8FBFF34F8F7B6100BFC4
:1002500000BFFDE74F4B1B68002B0BD14FF0500345
:1002600083F31188BFF36F8FBFF34F8F3B6100BFE4
:1002700000BFFDE74A4B1B68002B0BD14FF050032A
:1002800083F31188BFF36F8FBFF34F8FFB6000BF05
:1002900000BFFDE73C4B1B684249184606F07CFA5C
:1002A0003C4B1B684049184606F076FA3C4B1B68ED
:1002B0003E49184606F070FA3D4B02933D4B0193C0
:1002C0000523009300234FF4A0723B493B4806F0FE
:1002D0008BFA03463A4A13603A4B02933A4B019326
:1002E0000423009300234FF480722F49374806F00F
:1002F0007BFA0346364A1360364B0293364B019322
:10030000022300930023C0223449354806F06CFADA
:100310000346344A13602A4B1B68002B0BD14FF065
:10032000500383F31188BFF36F8FBFF34F8FBB6010
:1003300000BF00BFFDE7264B1B68002B0BD14FF021
:10034000500383F31188BFF36F8FBFF34F8F7B6030
:1003500000BF00BFFDE7234B1B68002B0BD14FF004
:10036000500383F31188BFF36F8FBFF34F8F3B6050
:1003700000BF00BFFDE700BF1837BD4680BD00BF0E
:10038000700100204802002064010020B801002014
:10039000080300206801002000020020E80300207C
:1003A0006C010020DC7A0008E47A0008EC7A00088E
:1003B00014040020F8040020F87A0008E90300087B
:1003C0000804002060040020F8090020A5040008AB
:1003D0000C040020AC040020F80D0020047B000871
:1003E000650500081004002080B58AB000AF786071
:1003F00006F00EFD78620523FB6100F077F900F04E
:100400000FFA00F099F9012000F0C0F900F0B4FBF8
:100410000121224801F04AF806F0FAFCB8610023F5
:100420003B627A6ABB69D31A002B03DD7A6ABB6927
:10043000D31A3B621A4B1B6807F108013A6A184647
:1004400005F060FE0346012B08D107F108031846AA
:1004500000F02CFE00F04EFA00F08EFB06F0D8FC07
:10046000B861BA697B6AD31A002BD5DB01F0B2FE02
:100470007861786900F05AFB786900F0ABFA00F017
:1004800039FA00F079FB7A6AFB6913447B62BA6936
:100490007B6AD31A002BF6DABEE700BF000000200B
:1004A0006401002080B586B000AF7860264B1B68E1
:1004B00007F108014FF0FF32184605F023FE03460E
:1004C000012B3FD13B891A46204B1A6000F0A6FE53
:1004D0000346002B0DD007F10803184600F004FF77
:1004E0000346002B05D01A4B1B680133184A1360D2
:1004F00029E0184B1B680133164A1360164803F0B5
:10050000B5FA0346154A13607B7D002B16D03B7D60
:10051000012B13D83B7D0133DBB23B750A4B1868C6
:1005200007F108010123002205F04CFC0346012BD2
:1005300004D00B4B1B680133094A1360642006F09A
:1005400023FBB3E700BFB1E7680100206001002092
:1005500054010020580100207C0000205C01002094
:100560005001002080B58CB000AF786006F050FCE0
:100570000346BB624FF4FA73FB6207F12803F96A82
:10058000184606F081FA0E4B1B6807F1080100229D
:10059000184605F099FE0346012BEED107F108033A
:1005A000184600F0C0FF07F108030021184600F0CC
:1005B000F5FF07F108030021184601F01CF8DCE7FD
:1005C0006C01002080B582B000AF104801F0E4FE5D
:1005D0000346002B01D0002314E001210B4801F059
:1005E000B5FF0346002B04D0084801F083FF002329
:1005F00008E0064802F0B0F80346FB80034801F02B
:1006000079FFFB8818460837BD4680BD4C000020A6
:1006100080B487B000AF0346FB80FB8840F6E4421D
:1006200003FB02F20F4BA3FB0213D21A520813442E
:10063000DB0A7B610C4B3B617B690C4A03FB02F2DA
:100640003B69B2FBF3F3FB60FB68B3F5803F02D27A
:10065000FB689BB201E04FF6FF7318461C37BD469E
:1006600080BC704701011000C091210040420F0082
:1006700080B483B000AF0346FB71FB79642B28BFC5
:100680006423DBB218460C37BD4680BC70470000BF
:1006900080B584B000AF0346FB71FB791846FFF7C5
:1006A000E7FF0346FB71FB794FF4616202FB03F342
:1006B0000B4AA2FB03235B09FB60FB68B3F5616F88
:1006C00002D340F60F63FB60FB689AB2054B9A8138
:1006D000054B1B68FA681A6400BF1037BD4680BD21
:1006E0001F85EB5100000020A400002080B500AF62
:1006F0000020FFF7CDFF024B0022DA7200BF80BD61
:100700000000002080B584B000AF0346FB71FB7988
:10071000022B14BF01230023DBB2FB73FB7B1A46C1
:100720004FF48061034803F086FC00BF1037BD46DC
:1007300080BD00BF000C014080B500AF00224FF427
:1007400000610E4803F077FC052006F01DFA012237
:100750004FF40061094803F06EFC022006F014FA21
:10076000074B00225A71074B00221A6001F032FD3C
:1007700003466433044A136000BF80BD000C01408F
:10078000000000203C0100203801002080B584B02A
:1007900000AF0346FB71204BDB79002B37D1FB798F
:1007A000022B01D00123FB711B4B9B78002B0CBF4C
:1007B00001230023FB7301224FF40061174803F06B
:1007C0003AFC154AFB79D370FB79022B01D1022246
:1007D00000E00122104B9A70FB791846FFF792FF58
:1007E00000F088F801F0F6FC03460B4AD361FB7B6E
:1007F000002B0DD0084B9B8A4FF6FF72934207D017
:10080000054B9B8A01339AB2034B9A8200E000BFEA
:100810001037BD4680BD00BF00000020000C014025
:1008200080B582B000AF144B9B78002B14BF01231E
:100830000023FB71FFF75AFF0F4B00225A720E4B39
:100840000022DA720C4B00229A700B4B0022DA70F5
:10085000FB79002B0BD0084B9B8A4FF6FF7293421B
:1008600005D0054B9B8A01339AB2034B9A8200BF95
:100870000837BD4680BD00BF0000002080B582B0B3
:1008800000AF0346FB71FB791846FFF7F1FE034604
:100890001A46044B9A7200F02DF800BF0837BD4687
:1008A00080BD00BF0000002080B584B000AF0346CB
:1008B000FB710F4B9B7A1AB297F907301BB21344A6
:1008C000FB81B7F90E30002B02DA0023FB8105E033
:1008D000B7F90E30642B01DD6423FB81FB89DBB2A9
:1008E0001846FFF7CBFF00BF1037BD4680BD00BFE5
:1008F0000000002080B500AF104B9B78002B03D088
:100900000E4BDB79002B05D0FFF7F0FE0B4B0022DE
:100910005A7211E0094BDB781846FFF7F3FE074BDC
:100920009B7A1846FFF7B4FE044B9A7A034BDA72AF
:10093000024B9A7A014B5A7280BD00BF0000002022
:1009400080B582B000AF0346FB71104B1B79002BC2
:1009500012D10E4AFB7913710C4BDB8A4FF6FF72F2
:10096000934205D0094BDB8A01339AB2074BDA82F6
:10097000FB79184600F05CFD044B0122DA71FFF7A9
:100980004FFF00BF0837BD4680BD00BF00000020FC
:1009900080B400AF0C4B00221A710B4B00225A712D
:1009A000094B00229A71084B0022DA71064B002293
:1009B0001A72064B00221A60054B00221A6000BF13
:1009C000BD4680BC704700BF0000002034010020FD
:1009D0003C01002080B582B000AF7860FFF7F2FDE7
:1009E00003461846FFF714FE03461A46074B1A80C3
:1009F000786800F039F8786800F00AF8786800F054
:100A000073F800BF0837BD4680BD00BF000000205E
:100A100080B582B000AF7860114B1B88B3F5FA7FC8
:100A200006D2104B00221A600D4B00229A7113E07F
:100A30000B4B01229A710B4B1B68002B02D1094A08
:100A40007B681360074B1B687A68D31AB3F57A7F0B
:100A500002D30120FFF774FF0837BD4680BD00BFF9
:100A6000000000203401002080B584B000AF786021
:100A70004021194803F0C8FA0346002B0CBF01239C
:100A80000023FB73154AFB7B5371FB7B83F001034F
:100A9000DBB2002B03D0124B00221A6019E0114B7D
:100AA0001B687A68D31A002B03DA0D4B00221A60F8
:100AB0000FE00B4B1B68002B02D1094A7B681360C7
:100AC000074B1B687A68D31A312B02D90220FFF733
:100AD00037FF1037BD4680BD0008014000000020F0
:100AE0003C0100203801002080B582B000AF786062
:100AF0000D4B1B7A002B13D00B4BDB7983F00103DA
:100B0000DBB2002B0CD0084B9B697A68D31AB3F583
:100B10007A7F05D3044B00221A720520FFF710FFDD
:100B200000BF0837BD4680BD0000002080B483B000
:100B300000AF78600F4B9B78002B03D10D4A7B6888
:100B4000D36113E00B4BDB69002B03D1094A7B68AF
:100B5000D3610BE0074B1A69064BDB697968CB1A46
:100B60001344044A1361034A7B68D3610C37BD46C2
:100B700080BC70470000002080B500AF044B1868AF
:100B800002230022034905F01DF900BF80BD00BF0C
:100B90006C0100200000002080B483B000AF034649
:100BA000FB71FB79602B06D9FB797A2B03D8FB7993
:100BB000203BDBB200E0FB7918460C37BD4680BC19
:100BC000704790B587B000AFF8600B467A60FB7253
:100BD0000023FB751BE0FA7DFB7A9A4212D2FB7D63
:100BE000FA6813441B781846FFF7D6FF03461C46E5
:100BF000FB7D7A6813441B781846FFF7CDFF034648
:100C00009C4201D0002309E0FB7D0133FB75FB7D95
:100C10007A6813441B78002BDDD1012318461C375A
:100C2000BD4690BD80B584B000AF78600B46FB70C8
:100C30007B68002B02D0FB78002B01D10023AAE0B7
:100C4000FB78574A19467868FFF7BBFF0346002B2D
:100C500008D1FB78534A19467868FFF7B2FF03467C
:100C6000002B01D00B2396E0FB784F4A1946786899
:100C7000FFF7A7FF0346002B08D1FB784B4A194624
:100C80007868FFF79EFF0346002B01D00C2382E01B
:100C90007B681B781846FFF77FFF0346FB73FB7BDF
:100CA0002B3B2D2B76D801A252F823F08D0D000896
:100CB000950D0008910D0008950D0008950D000890
:100CC000950D0008950D0008950D0008950D00087C
:100CD000950D0008950D0008950D0008950D00086C
:100CE000950D0008950D0008950D0008950D00085C
:100CF000950D0008950D0008950D0008950D00084C
:100D0000950D0008650D0008690D0008950D000897
:100D1000710D0008950D00087D0D0008950D000867
:100D2000950D0008810D0008950D0008950D00082F
:100D3000950D0008950D0008910D0008950D00080F
:100D4000890D0008950D0008750D0008850D000837
:100D5000790D00088D0D0008950D0008950D00080F
:100D60006D0D0008012316E0022314E0032312E0B6
:100D7000042310E005230EE006230CE007230AE01D
:100D8000082308E0092306E00A2304E00B2302E01D
:100D90000C2300E0002318461037BD4680BD00BF7D
:100DA000107B0008187B00081C7B0008247B0008CF
:100DB00080B483B000AF0346FB71FB79013B0B2B82
:100DC00032D801A252F823F0F90D0008FD0D0008F9
:100DD000010E0008050E0008090E00080D0E00089F
:100DE000110E0008150E0008190E00081D0E00084F
:100DF000210E0008250E0008412316E0422314E0CE
:100E0000582312E0442310E052230EE054230CE058
:100E100046230AE0492308E0532306E0502304E078
:100E2000552302E04E2300E03F2318460C37BD4611
:100E300080BC704780B584B000AF786000233B72FF
:100E400000237B720023BB727B68DA1C7B689B7873
:100E500019461046FFF7E6FE03463B727B689B7817
:100E6000012B1CD93B7A0A2B05D03B7A012B02D0EF
:100E70003B7A022B13D17B681B791846FFF7F8FBEE
:100E800003467B723B7A0A2B02D07B7A002B01D07F
:100E9000012300E0002303F00103DBB2BB7207F182
:100EA0000C0307F108021268114619800233120C74
:100EB0001A7000233A7B62F307037A7B62F30F23F5
:100EC000BA7B62F3174318461037BD4680BD000059
:100ED00080B584B000AF78603B79013B0B2B00F20A
:100EE000DE8001A252F823F0190F0008190F000844
:100EF000E30F0008F50F000809100008351000087E
:100F00006B10000879100008791000086B0F0008BA
:100F10009B0F00089B0F0008BB79002B03D07B7947
:100F20001846FFF7ABFC604BDB79002B0DD05E4B16
:100F30001B79042B07D03B795B4A127900211846B4
:100F400000F03CFAACE0FFF723FD3B79022B01D126
:100F5000022300E001231846FFF718FC3B7900222A
:100F60000121184600F02AFA9AE0BB7983F00103C8
:100F7000DBB2002B06D03B79FE220021184600F0A0
:100F80001DFA8DE07B791846FFF778FC3B7900224B
:100F90000121184600F012FA82E0434BDB79002B66
:100FA00007D03B79404A12790021184600F006FA32
:100FB00076E03B790B2B01D1142301E06FF0130392
:100FC000FB7397F90F301846FFF76EFC3B79002250
:100FD0000121184600F0F2F90121334800F0DEFA51
:100FE0005EE0FFF71DFC3B7900220121184600F06E
:100FF000E5F955E00420FFF7A3FC3B79002201212D
:10100000184600F0DBF94BE0FFF7C2FCFFF708FCE5
:10101000254B50229A723B7900220121184600F09C
:10102000CDF90121204800F041FA01211E4800F0CD
:10103000B5FA35E01C4BDB79002B07D03B791A4A17
:1010400012790021184600F0B9F929E0164B012267
:101050001A7201F0BFF80346134A93613B790022EC
:101060000121184600F0AAF91AE03B79002201217B
:10107000184600F0A3F913E001210B4800F016FA1E
:101080000121094800F08AFA0121074800F0B3FA6B
:101090003B7900220121184600F090F900E000BFE2
:1010A0001037BD4680BD00BF0000002080B584B071
:1010B00000AF78607B681B8840F20112934212D126
:1010C0007868FFF7B7FE03461A463A72C3F3072261
:1010D0007A72C3F30743BB723B7A002B35D0B868F2
:1010E000FFF7F6FE31E07B681B8840F20222934254
:1010F0002BD17B689B78022B27D97B68DB781AB2CF
:101100007B681B791BB21B021BB21343FB81B7F92F
:101110000E30B3F57A6F0ADD0D4BDB7983F00103F6
:10112000DBB2002B03D00620FFF70AFC0DE07B6842
:101130005B794F2B09D9064BDB7983F00103DBB2D6
:10114000002B02D00320FFF7FBFB1037BD4680BD0C
:101150000000002080B588B000AF396011461A4603
:101160000346FB800B467B7113463B7107F10C0372
:1011700000221A605A609A609A81FB88B3F5006F6A
:1011800008D27B79082B05D87B79002B04D03B68EB
:10119000002B01D1002337E0FB88BB817B79BB7337
:1011A0003B797B767B79002B07D07A7907F10C03AA
:1011B00003333968184606F077FC3B79002B09D0D9
:1011C000134B186807F10C010123002204F0FAFD0B
:1011D000034608E00E4B186807F10C0100230022BB
:1011E00004F0F0FD0346FB61FB69012B06D1094BBE
:1011F0001B680133074A1360012305E0064B1B6897
:101200000133054A1360002318462037BD4680BDD0
:10121000680100204C0100205001002080B582B000
:1012200000AF2F4802F0FBFB0346FB712C4B1B6801
:101230009B6903F00403002B14BF01230023BB713F
:1012400000F0C8FF3860FB79022B07D1BB7983F02F
:101250000103DBB2002B01D001233DE0214B1B68D1
:101260003A68D31A632B01D8002335E01D4A3B6846
:101270001360142002F027FD132002F024FD18480B
:1012800001F0C0FE164801F079FE0346002B07D09E
:10129000142002F00AFD132002F007FD00231BE0DA
:1012A00003210F4802F0A9F90346002B07D01420B0
:1012B00002F0FBFC132002F0F8FC00230CE01420E9
:1012C00002F00FFD132002F00CFD142002F0EDFCE3
:1012D000132002F0EAFC012318460837BD4680BD02
:1012E0007C0000204001002080B58AB000AF78600B
:1012F00007F10C0300221A605A609A60DA601A61E2
:101300005A6105F085FD78620BE005F081FD02462B
:101310007B6AD31A022B01D9002348E0012005F093
:1013200033FC254801F0CAFF0346002BEDD07B6853
:101330001B88FB6000237B610023BB617B689B787B
:10134000FB61002387F820300021012006F044F8DB
:101350007B68DA1C07F1080307F10C01164801F05D
:101360009AFE0346002B01D0002320E00A21012031
:1013700006F032F80346002B0ED1BB6819460E4822
:1013800001F0D0FF0346002B04D0BB6819460A4881
:1013900001F050FF00230AE0BB681946064801F03F
:1013A000C1FF0346002B0CBF01230023DBB218460C
:1013B0002837BD4680BD00BF7C00002080B584B0CA
:1013C00000AF0346FB710B46BB7113467B71FB7983
:1013D0001846FFF7EDFC03463B72BB79002B01D0AA
:1013E000012300E000237B727B79BB720F4B9B785B
:1013F000FB720E4B1B793B730C4B1B88DBB27B7370
:101400000A4B1B881B0A9BB2DBB2BB73074B5B7A90
:10141000FB7307F108010123082240F28110FFF756
:1014200099FE00BF1037BD4680BD00BF0000002000
:1014300080B584B000AF0346FB71FB793B721A4B59
:101440009B787B72184B1B88DBB2BB72164B1B88D8
:101450001B0A9BB2DBB2FB72134B5B79002B01D0F2
:10146000012300E000233B730F4B9B79002B01D03D
:10147000012300E000237B730B4B1B7A002B01D070
:10148000012300E00023BB73074B5B7AFB7307F17A
:1014900008010123082240F22120FFF75BFE00BF74
:1014A0001037BD4680BD00BF0000002080B584B06D
:1014B00000AF78600B46FB707B689B783B727B6863
:1014C0001B797B727B685B79002B01D0012300E0E4
:1014D0000023BB727B689B79002B01D0012300E0C5
:1014E0000023FB727B68DB79002B01D0012300E035
:1014F00000233B737B681B88DBB27B737B681B8894
:101500001B0A9BB2DBB2BB737B685B7AFB73FB7815
:1015100007F10801082240F21120FFF71BFE00BF6F
:101520001037BD4680BD80B584B000AF78607B6861
:101530001B88DBB23B727B681B881B0A9BB2DBB249
:101540007B727B689B78BB727B681B79FB727B68C4
:101550005B79002B01D0012300E000233B737B6803
:101560009B79002B01D0012300E000237B737B6873
:101570001B7A002B01D0012300E00023BB737B68A2
:101580005B7AFB7307F108010023082240F2012077
:10159000FFF7E0FD00BF1037BD4680BD80B584B0C9
:1015A00000AF78600B46FB707B685B7A3B727B68B0
:1015B0009B7A7B727B68DB7ABB727B68DB78FB7221
:1015C0007B689B89DBB23B737B689B891B0A9BB260
:1015D000DBB27B737B689B78BB730023FB73FB7868
:1015E00007F10801082240F20320FFF7B3FD00BF16
:1015F0001037BD4680BD80B584B000AF78600B4623
:10160000FB707B681B69DBB23B727B681B691B0A42
:10161000DBB27B727B681B691B0CDBB2BB727B6825
:101620001B691B0EDBB2FB727B689B8ADBB23B73D0
:101630007B689B8A1B0A9BB2DBB27B737B68DB8A6D
:10164000DBB2BB737B68DB8A1B0A9BB2DBB2FB732A
:10165000FB7807F1080108224FF40170FFF77AFDCB
:1016600000BF1037BD4680BD80B582B000AF0023FB
:101670007B600D4B1B68002B11D00B4B1B683A1D78
:101680001146184605F0F0FE7B68002B07D0074B8B
:101690004FF080521A60BFF34F8FBFF36F8F00BFC0
:1016A0000837BD4680BD00BF0C04002004ED00E0FB
:1016B00080B58AB000AF3B4628220021184606F0CC
:1016C000C7F900237B610023BB610123FB61002379
:1016D0003B6000237B600023BB600023FB60002392
:1016E0003B6101233B620E237B623B461946064861
:1016F00001F07BFB0346002B01D000F0FDFC00BF96
:101700002837BD4680BD00BF7C00002080B584B076
:1017100000AF3B1D00221A605A609A60184B194AAC
:101720001A60174B00229A60154B00221A73144B53
:1017300000221A75124B4FF46022DA61104B00221E
:101740005A600F4B01221A610D4800F04DFD03460F
:10175000002B01D000F0D0FC03237B600123BB6091
:101760000623FB603B1D1946054801F001F80346BE
:10177000002B01D000F0C0FC00BF1037BD4680BD7B
:101780004C0000200024014080B500AF174B184AE0
:101790001A60164B04225A60144B00229A60134BB5
:1017A0000022DA60114B4FF440221A610F4B4FF4C4
:1017B00040125A610D4B00221A760C4B01225A76C8
:1017C0000A4B00229A76094B0122DA76074B002257
:1017D0001A77064B00225A77044801F00BFA0346A9
:1017E000002B01D000F088FC00BF80BD7C000020F1
:1017F0000064004080B58EB000AF07F128030022DE
:101800001A605A609A60DA6007F1200300221A60B9
:101810005A603B1D00221A605A609A60DA601A61B1
:101820005A619A612C4B2D4A1A602B4B00225A6048
:10183000294B00229A60284B40F60F62DA60264B53
:1018400000221A61244B00229A61234803F088F990
:101850000346002B01D000F04FFC4FF48053BB62D5
:1018600007F1280319461C4803F0EEFC0346002B41
:1018700001D000F041FC184803F042FA0346002B67
:1018800001D000F039FC00233B6200237B6207F1AA
:1018900020031946104804F073F80346002B01D0CA
:1018A00000F02AFC60237B600023BB600023FB6008
:1018B00000237B613B1D0C221946074803F002FC04
:1018C0000346002B01D000F017FC034800F074F928
:1018D00000BF3837BD4680BDA40000200004004092
:1018E00080B58AB000AF07F1140300221A605A6075
:1018F0009A60DA60314B9B69304A43F0010393618F
:101900002E4B9B6903F001033B613B692B4B9B69A9
:101910002A4A43F020039361284B9B6903F020037C
:10192000FB60FB68254B9B69244A43F004039361E9
:10193000224B9B6903F00403BB60BB681F4B9B6990
:101940001E4A43F0080393611C4B9B6903F0080394
:101950007B607B681A4B5B687B627B6A23F0E06389
:101960007B627B6A43F000737B62154A7B6A53603B
:1019700000224FF44061134802F05DFB40237B617D
:101980000023BB610123FB6107F1140319460E48D4
:1019900002F0B6F94FF440637B610123BB61002381
:1019A000FB6102233B6207F114031946054802F06C
:1019B000A7F900BF2837BD4680BD00BF0010024018
:1019C00000000140000C01400008014080B58AB0D1
:1019D00000AF786007F1180300221A605A609A601D
:1019E000DA607B681B682B4A93424ED12A4BDB6935
:1019F000294A43F00073D361274BDB6903F000737E
:101A00007B617B69244B9B69234A43F00403936108
:101A1000214B9B6903F004033B613B691E4B9B69AF
:101A20001D4A43F0010393611B4B9B6903F00103C3
:101A3000FB60FB684FF40063BB610023FB61002384
:101A40003B6207F118031946144802F059F94FF4A4
:101A50008053BB610223FB6103237B6207F1180300
:101A600019460E4802F04CF900220521142002F01C
:101A700000F9142002F019F900220621132002F0C7
:101A8000F8F8132002F011F900E000BF2837BD4636
:101A900080BD00BF0064004000100240000801400B
:101AA00080B588B000AF786007F1100300221A609B
:101AB0005A609A60DA607B681B68154A934222D1AB
:101AC000144B9B69134A43F400739361114B9B6958
:101AD00003F40073FB60FB680E4B9B690D4A43F0F7
:101AE000040393610B4B9B6903F00403BB60BB6869
:101AF00008233B6103237B6107F110031946064865
:101B000002F0FEF800E000BF2037BD4680BD00BFF8
:101B100000240140001002400008014080B485B05C
:101B200000AF78607B681B68B3F1804F0CD1114B1C
:101B3000DB69104A43F00103D3610E4BDB6903F00C
:101B40000103FB60FB6810E07B681B680A4A934254
:101B50000BD1084BDB69074A43F00203D361054B05
:101B6000DB6903F00203BB60BB6800BF1437BD46EE
:101B700080BC7047001002400004004080B485B073
:101B800000AF78607B681B68094A93420BD1094B10
:101B9000DB69084A43F00203D361064BDB6903F0BB
:101BA0000203FB60FB6800BF1437BD4680BC704772
:101BB000000400400010024080B588B000AF78609B
:101BC00007F1100300221A605A609A60DA607B689D
:101BD0001B68104A934218D10F4B9B690E4A43F081
:101BE000080393610C4B9B6903F00803FB60FB68DF
:101BF00002233B6102237B610323FB6107F1100396
:101C00001946064802F07CF800E000BF2037BD46C8
:101C100080BD00BF0004004000100240000C0140E5
:101C200080B594B000AF786000233B647B681B688C
:101C30006B4A934240F0D0806A4B1B68002B00F047
:101C4000CB80B3E007F1180300221A605A609A6053
:101C5000002387F84F3007F11803033307F12402FC
:101C60000021786801F081FB0346002B40F0A7803B
:101C7000FB6A002B40F099803B6B002B40F0958075
:101C80007B6A9BB23B837B6B082B02D87B6BDBB2FE
:101C900000E00823BB763B8B40F2011293421DD13A
:101CA000BB7E002B1AD0FB7E1846FEF775FF03465D
:101CB00087F8473097F84730442B03D097F84730E0
:101CC000582B01D1012300E0002387F84F3097F80B
:101CD0004F3003F0010387F84F3023E03B8B40F295
:101CE000022293421ED1BB7E022B1BD9FB7E1AB26D
:101CF0003B7F1BB21B021BB21343A7F84430B7F95A
:101D00004430B3F57A6F02DC7B7F4F2B01D901237E
:101D100000E0002387F84F3097F84F3003F00103BD
:101D200087F84F3097F84F30002B0AD02D4B1868AA
:101D300007F1400207F11801012304F045F90346B9
:101D400009E0284B186807F1400207F11801002349
:101D500004F03AF90346BB64BB6C012B16D097F82C
:101D60004F30002B12D01F4B1B6807F1400207F1C8
:101D70000C01184604F08CFB1A4B186807F140025E
:101D800007F11801012304F01FF9B864BB6C012BA3
:101D900005D1154B1B680133134A136006E0134B42
:101DA0001B680133114A136000E000BF002178680E
:101DB00001F0FCFB0346002B7FF444AF00E000BFC2
:101DC0003B6C002B09D00A4B4FF080521A60BFF3D6
:101DD0004F8FBFF36F8F00E000BF5037BD4680BD0F
:101DE00000640040640100204401002048010020FC
:101DF00004ED00E080B582B000AF78607B681B68BE
:101E0000044A934201D1FFF72FFC00BF0837BD46BB
:101E100080BD00BF0064004080B582B000AF786034
:101E20007B681B68044A934201D1FFF71DFC00BF89
:101E30000837BD4680BD00BF0064004080B582B059
:101E400000AF78607B681B68044A934201D1FFF7BA
:101E50000BFC00BF0837BD4680BD00BF00640040DA
:101E600080B582B000AF78607B681B68044A9342FB
:101E700001D1FFF7F9FB00BF0837BD4680BD00BFA9
:101E80000064004080B582B000AF78607B681B685A
:101E9000044A934201D1FFF7E7FB00BF0837BD4674
:101EA00080BD00BF0064004080B582B000AF7860A4
:101EB0007B681B68044A934201D1FFF7D5FB00BF42
:101EC0000837BD4680BD00BF0064004080B500AF4C
:101ED000024801F0B7FB00BF80BD00BF7C000020BE
:101EE00080B500AF024801F0ADFB00BF80BD00BF70
:101EF0007C00002080B500AF024802F0F3FF00BF75
:101F000080BD00BFEC00002080B586B000AF7860D7
:101F10002D4BDB692C4A43F00103D3612A4BDB696B
:101F200003F00103FB60FB6802F068FC7861264B5C
:101F30005B6803F4E063002B02D07B695B0000E088
:101F40007B693B613B69214A934201D8012337E019
:101F50001F4B1B68B3F1804F02D11D4802F0A2FE57
:101F60001B4B4FF080421A603B691A4AA2FB0323C5
:101F70009B0C013B164A5360154B00229A60144B90
:101F800040F2E732DA60124B00221A61104B002255
:101F90009A610F4802F0E4FD0346002B01D00123B3
:101FA0000EE0002279681C2001F063FE1C2001F085
:101FB0007CFE094A7B681360054802F021FE034657
:101FC00018461837BD4680BD001002403F420F0042
:101FD000EC00002083DE1B432400002080B582B08B
:101FE00000AF78607B681B68B3F1804F01D100F0CF
:101FF000DFF800BF0837BD4680BD000080B485B063
:1020000000AFF860B9607A60FB68064A1A60BB6886
:10201000054A1A607B6880221A6000BF1437BD46EB
:1020200080BC7047F81000204411002080B582B0B9
:1020300000AF7860396000F05FF800BF0837BD4638
:1020400080BD80B594B000AF07F12803282200219D
:10205000184605F0FDFC07F1140300221A605A60CF
:102060009A60DA601A613B1D00221A605A609A6019
:10207000DA600123BB624FF48033FB6200233B63D1
:102080000123BB6302237B644FF48033BB644FF4B2
:10209000E013FB6407F12803184601F0E5FF03464F
:1020A000002B01D000F028F80F237B610223BB61D5
:1020B0000023FB614FF480633B6200237B6207F1E6
:1020C00014030221184602F051FA0346002B01D0F6
:1020D00000F012F802237B604FF40043FB603B1DCD
:1020E000184602F0D1FB0346002B01D000F004F8A3
:1020F00000BF5037BD4680BD80B500AF72B600BF8F
:10210000054B1B6800221A6400224FF4006103484B
:1021100001F091FF00BFFDE7A4000020000C01408A
:1021200080B400AF00BFBD4680BC7047FFF7F8FF2A
:102130000B480C490C4A002302E0D458C450043325
:10214000C4188C42F9D3094A094C002301E01360FA
:102150000432A242FBD305F083FCFDF7F9FF704780
:1021600000000020300000207C7B000830000020B0
:102170005C140020FEE7000080B500AF084B1B6830
:10218000074A43F010031360032001F067FD0F209E
:10219000FFF7BAFE00F006F80023184680BD00BF26
:1021A0000020024080B400AF00BFBD4680BC704735
:1021B00080B400AF054B1B781A46054B1B681344CF
:1021C000034A136000BFBD4680BC70472800002052
:1021D0004413002080B400AF024B1B681846BD4674
:1021E00080BC70474413002080B586B000AF786093
:1021F0000023FB7500233B610023BB600023FB60D1
:102200007B68002B01D10123BEE07B689B68002B1B
:102210007B689B6A002B09D17B680022DA627B68AD
:10222000002283F824207868FFF73AFC786800F0F1
:10223000F1FB0346FB757B689B6A03F01003002BE0
:1022400040F09980FB7D002B40F095807B689B6A75
:1022500023F4885323F0020343F002027B689A625E
:102260007B685A687B68DB691A437B681B7B5B0071
:102270001343BA681343BB607B689B68B3F5807FE8
:1022800003D07B689B68012B02D14FF4807300E080
:1022900000233A6913433B617B681B7D012B19D1F5
:1022A0007B681B7B002B09D17B689B69013B5A0330
:1022B0003B69134343F400633B610BE07B689B6A1B
:1022C00043F020027B689A627B68DB6A43F001027C
:1022D0007B68DA627B681B685B6823F469417B6812
:1022E0001B683A690A435A607B681B689A68284BE6
:1022F00013407A681268B9680B4393607B689B68E7
:10230000B3F5807F03D07B689B68012B04D17B6889
:102310001B69013B1B05FB607B681B68DB6A23F4C0
:1023200070017B681B68FA680A43DA627B681B6885
:102330009A68184B1340BA689A420BD17B68002206
:10234000DA627B689B6A23F0030343F001027B6837
:102350009A6218E07B689B6A23F0120343F0100234
:102360007B689A627B68DB6A43F001027B68DA6211
:102370000123FB7507E07B689B6A43F010027B68D2
:102380009A620123FB75FB7D18461837BD4680BD58
:10239000FDF7E1FFFE0E1FFF80B584B000AF78604F
:1023A0000023FB737B6893F82430012B01D10223B7
:1023B00098E07B68012283F82420786800F0D0FA46
:1023C0000346FB73FB7B002B40F087807B689B6A96
:1023D00023F4407323F0010343F480727B689A6214
:1023E0007B681B68414A934205D1414B5B6803F40B
:1023F0007023002B15D17B689B6A23F480127B68C5
:102400009A627B681B685B6803F48063002B26D0AC
:102410007B689B6A23F4405343F480527B689A6242
:102420001DE07B689B6A43F480127B689A627B683C
:102430001B682F4A934204D07B681B682B4A934247
:102440000DD12B4B5B6803F48063002B07D07B68B6
:102450009B6A23F4405343F480527B689A627B6802
:102460009B6A03F48053002B06D07B68DB6A23F061
:1024700006027B68DA6202E07B680022DA627B682F
:10248000002283F824207B681B686FF002021A6028
:102490007B681B689B6803F46023B3F5602F13D13E
:1024A0007B681B68114A934205D1114B5B6803F4AA
:1024B0007023002B08D17B681B689A687B681B68B7
:1024C00042F4A0029A600CE07B681B689A687B6803
:1024D0001B6842F480129A6003E07B68002283F854
:1024E0002420FB7B18461037BD4680BD00280140E4
:1024F0000024014080B584B000AF78600023FB73F6
:102500007B6893F82430012B01D102231AE07B6809
:10251000012283F82420786800F07CFA0346FB73DC
:10252000FB7B002B09D17B689B6A23F4885323F043
:10253000010343F001027B689A627B68002283F802
:102540002420FB7B18461037BD4680BD90B587B070
:1025500000AF7860396000237B610023FB600023BB
:102560003B61FFF737FE78617B681B689B6803F46B
:102570008073002B0BD07B689B6A43F020027B6842
:102580009A627B68002283F824200123D3E07B68D1
:102590001B685B6803F48073002B31D17B681B6878
:1025A000DB6A03F47003002B2AD121E03B68B3F10E
:1025B000FF3F1DD03B68002B07D0FFF70BFE024604
:1025C0007B69D31A3A689A4212D27B681B681B68EF
:1025D00003F00203002B0BD17B689B6A43F00402DB
:1025E0007B689A627B68002283F824200323A2E0A0
:1025F0007B681B681B6803F00203002BD6D070E0D9
:102600004F4B1C68022002F0F5F90346B4FBF3F2CD
:102610007B681B6819694B4B0B40002B18D17B68FA
:102620001B68D968484B0B40002B11D17B681B6895
:102630001969464B0B40002B08D17B681B68D96891
:10264000434B0B40002B01D1142320E029231EE033
:102650007B681B6819693D4B0B40002B06D17B68DA
:102660001B68D9683A4B0B40002B0DD07B681B6868
:102670001969384B0B40002B08D17B681B68D9685F
:10268000344B0B40002B01D1542300E0FC2302FB10
:1026900003F33B6121E03B68B3F1FF3F1AD03B6895
:1026A000002B07D0FFF796FD02467B69D31A3A68E4
:1026B0009A420FD2FB683A699A420BD97B689B6AAF
:1026C00043F004027B689A627B68002283F824202E
:1026D000032330E0FB680133FB60FB683A699A42F0
:1026E000D9D87B681B686FF012021A607B689B6AFE
:1026F00043F400727B689A627B681B689B6803F4F2
:102700006023B3F5602F15D17B681B7B002B11D1A3
:102710007B689B6A23F480727B689A627B689B6A01
:1027200003F48053002B05D17B689B6A43F00102C0
:102730007B689A62002318461C37BD4690BD00BFD7
:102740002000002024499224244992009224491216
:10275000922449004992240080B483B000AF78608D
:102760007B681B68DB6C18460C37BD4680BC704725
:1027700080B485B000AF786039600023FB7300231C
:10278000BB607B6893F82430012B01D10223DCE08D
:102790007B68012283F824203B685B68062B1CD8E9
:1027A0007B681B68596B3B685A6813469B0013444F
:1027B000053B1F2202FA03F3DB4319403B6818680C
:1027C0003B685A6813469B001344053B00FA03F22A
:1027D0007B681B680A435A633CE03B685B680C2BD0
:1027E0001CD87B681B68196B3B685A6813469B00B2
:1027F0001344233B1F2202FA03F3DB4319403B68D7
:1028000018683B685A6813469B001344233B00FA40
:1028100003F27B681B680A431A631BE07B681B6832
:10282000D96A3B685A6813469B001344413B1F22F8
:1028300002FA03F3DB4319403B6818683B685A68A7
:1028400013469B001344413B00FA03F27B681B686C
:102850000A43DA623B681B68092B1CD97B681B683A
:10286000D9683B681A6813465B0013441E3B072275
:1028700002FA03F3DB4319403B6898683B681A6827
:1028800013465B0013441E3B00FA03F27B681B688F
:102890000A43DA6019E07B681B6819693B681A68AB
:1028A00013465B001344072202FA03F3DB4319408B
:1028B0003B6898683B681A6813465B00134400FA4B
:1028C00003F27B681B680A431A613B681B68102B84
:1028D00003D03B681B68112B32D17B681B681D4AF3
:1028E000934225D17B681B689B6803F40003002B8F
:1028F00026D17B681B689A687B681B6842F40002DB
:102900009A603B681B68102B1AD1134B1B68134A43
:10291000A2FB03239A0C13469B0013445B00BB608D
:1029200002E0BB68013BBB60BB68002BF9D107E04C
:102930007B689B6A43F020027B689A620123FB73E9
:102940007B68002283F82420FB7B18461437BD46A1
:1029500080BC7047002401402000002083DE1B4320
:1029600080B584B000AF78600023FB600023BB60BB
:102970007B681B689B6803F00103012B40D07B68D8
:102980001B689A687B681B6842F001029A601F4BC3
:102990001B681F4AA2FB03239B0CBB6002E0BB68C1
:1029A000013BBB60BB68002BF9D1FFF713FCF8605B
:1029B0001FE0FFF70FFC0246FB68D31A022B18D961
:1029C0007B681B689B6803F00103012B11D07B68B7
:1029D0009B6A43F010027B689A627B68DB6A43F073
:1029E00001027B68DA627B68002283F824200123DD
:1029F00007E07B681B689B6803F00103012BD8D1BB
:102A0000002318461037BD4680BD00BF20000020BF
:102A100083DE1B4380B584B000AF78600023FB6089
:102A20007B681B689B6803F00103012B2ED17B6838
:102A30001B689A687B681B6822F001029A60FFF7A6
:102A4000C9FBF8601BE0FFF7C5FB0246FB68D31A21
:102A5000022B14D97B681B689B6803F00103012BD0
:102A60000DD17B689B6A43F010027B689A627B6899
:102A7000DB6A43F001027B68DA62012307E07B68CE
:102A80001B689B6803F00103012BDCD00023184670
:102A90001037BD4680BD000090B587B000AF7860AC
:102AA0000023FB750023FB607B6893F82430012B27
:102AB00001D1022397E07B68012283F82420786803
:102AC000FFF7A8FF0346FB757868FFF749FF034649
:102AD000FB75FB7D002B40F081807B689B6A23F4B3
:102AE000885323F0020343F002027B689A62404B52
:102AF0001C68022001F07EFF0346B4FBF3F35B0089
:102B0000FB6002E0FB68013BFB60FB68002BF9D136
:102B10007B681B689A687B681B6842F008029A60B1
:102B2000FFF758FB38611BE0FFF754FB02463B6997
:102B3000D31A0A2B14D97B681B689B6803F008031F
:102B4000002B0DD07B689B6A23F0120343F0100228
:102B50007B689A627B68002283F82420012342E08C
:102B60007B681B689B6803F00803002BDCD17B6843
:102B70001B689A687B681B6842F004029A60FFF742
:102B800029FB38611BE0FFF725FB02463B69D31A9E
:102B90000A2B14D97B681B689B6803F00403002B85
:102BA0000DD07B689B6A23F0120343F010027B6810
:102BB0009A627B68002283F82420012313E07B685B
:102BC0001B689B6803F00403002BDCD17B689B6AC5
:102BD00023F0030343F001027B689A627B680022C2
:102BE00083F82420FB7D18461C37BD4690BD00BFEE
:102BF0002000002080B584B000AF78607B68002B97
:102C000001D10123EDE07B6893F82030DBB2002B8B
:102C100002D17868FEF7DAFE7B681B681A687B6869
:102C20001B6842F001021A60FFF7D4FAF86012E064
:102C3000FFF7D0FA0246FB68D31A0A2B0BD97B6840
:102C40005B6A43F400327B685A627B68052283F832
:102C500020200123C5E07B681B685B6803F001034B
:102C6000002BE5D07B681B681A687B681B6822F024
:102C700002021A60FFF7AEFAF86012E0FFF7AAFA54
:102C80000246FB68D31A0A2B0BD97B685B6A43F4B4
:102C900000327B685A627B68052283F8202001237A
:102CA0009FE07B681B685B6803F00203002BE5D1A3
:102CB0007B681B7E012B08D17B681B681A687B68C8
:102CC0001B6842F080021A6007E07B681B681A6884
:102CD0007B681B6822F080021A607B685B7E012B98
:102CE00008D17B681B681A687B681B6842F0400249
:102CF0001A6007E07B681B681A687B681B6822F013
:102D000040021A607B689B7E012B08D17B681B68A0
:102D10001A687B681B6842F020021A6007E07B6833
:102D20001B681A687B681B6822F020021A607B68A7
:102D3000DB7E012B08D17B681B681A687B681B68E7
:102D400022F010021A6007E07B681B681A687B6833
:102D50001B6842F010021A607B681B7F012B08D1B0
:102D60007B681B681A687B681B6842F008021A605F
:102D700007E07B681B681A687B681B6822F0080202
:102D80001A607B685B7F012B08D17B681B681A681F
:102D90007B681B6842F004021A6007E07B681B68CE
:102DA0001A687B681B6822F004021A607B689A68C4
:102DB0007B68DB681A437B681B691A437B685B6925
:102DC00042EA03017B685B685A1E7B681B680A4302
:102DD000DA617B6800225A627B68012283F8202036
:102DE000002318461037BD4680BD80B487B000AFC1
:102DF000786039607B681B687B617B6893F8203062
:102E0000FB74FB7C012B03D0FB7C022B40F0AA80DF
:102E10007B69D3F8003243F001027B69C3F80022DA
:102E20003B685B6903F01F03012202FA03F3FB60B6
:102E30007B69D3F81C22FB68DB431A407B69C3F82B
:102E40001C223B68DB69002B23D17B69D3F80C2261
:102E5000FB68DB431A407B69C3F80C223B68DB68E4
:102E600019043B685B689BB23A68526919437B69F5
:102E7000483243F832103B689B6819043B681B6872
:102E80009AB23B685B690A4379694833DB000B44BB
:102E90005A603B68DB69012B22D17B69D3F80C2295
:102EA000FB681A437B69C3F80C223B681B68190452
:102EB0003B685B689BB23A68526919437B69483248
:102EC00043F832103B689B6819043B68DB689AB290
:102ED0003B685B690A4379694833DB000B445A60FD
:102EE0003B689B69002B09D17B69D3F80422FB68FE
:102EF000DB431A407B69C3F8042207E07B69D3F8FF
:102F00000422FB681A437B69C3F804223B681B69EF
:102F1000002B09D17B69D3F81422FB68DB431A40EC
:102F20007B69C3F8142207E07B69D3F81422FB689D
:102F30001A437B69C3F814223B681B6A012B07D133
:102F40007B69D3F81C22FB681A437B69C3F81C22F7
:102F50007B69D3F8003223F001027B69C3F80022B9
:102F6000002306E07B685B6A43F480227B685A6238
:102F7000012318461C37BD4680BC704780B584B01D
:102F800000AF78607B6893F82030DBB2012B2ED144
:102F90007B68022283F820207B681B681A687B68A4
:102FA0001B6822F001021A60FFF714F9F86012E0C2
:102FB000FFF710F90246FB68D31A0A2B0BD97B687E
:102FC0005B6A43F400327B685A627B68052283F8AF
:102FD0002020012312E07B681B685B6803F001037B
:102FE000002BE5D17B6800225A62002306E07B6853
:102FF0005B6A43F400227B685A620123184610374B
:10300000BD4680BD80B584B000AF78607B6893F822
:103010002030DBB2022B33D17B681B681A687B68D7
:103020001B6842F001021A60FFF7D4F8F86012E062
:10303000FFF7D0F80246FB68D31A0A2B0BD97B683E
:103040005B6A43F400327B685A627B68052283F82E
:10305000202001231BE07B681B685B6803F00103F1
:10306000002BE5D07B681B681A687B681B6822F020
:1030700002021A607B68012283F82020002306E008
:103080007B685B6A43F480127B685A6201231846AE
:103090001037BD4680BD80B489B000AFF860B9601C
:1030A0007A603B60FB6893F82030FB77FB681B6815
:1030B0009B68BB61FB7F012B03D0FB7F022B40F0A1
:1030C000AD80BB6903F08063002B0AD1BB6903F0BC
:1030D0000063002B05D1BB6903F08053002B00F087
:1030E0009580BB691B0E03F003037B6101227B69A2
:1030F0009A403B681A60BB689B68002B0DD1BB6887
:103100001B685A05BB68DB68F96809681A437B6964
:1031100018331B010B441A600FE0BB685B68DA00D0
:10312000BB689B681A43BB68DB68F96809681A4387
:103130007B6918331B010B441A60FB681968BB6874
:103140001A697B6918331B010B4404331A60BB688E
:103150001B7D012B11D1FB681A687B6918331B0199
:10316000134404331B68FA68116843F480727B6966
:1031700018331B010B4404331A607B6807331B7838
:103180001A067B6806331B781B041A437B680533D9
:103190001B781B0213437A68043212781046FA68CF
:1031A000116843EA00027B691B010B4403F5C673F7
:1031B0001A607B6803331B781A067B6802331B781E
:1031C0001B041A437B6801331B781B0213437A6884
:1031D00012781046FA68116843EA00027B691B0105
:1031E0000B4403F5C4731A60FB681A687B691833D3
:1031F0001B0113441B68FA68116843F001027B69E4
:1032000018331B010B441A6000230EE0FB685B6A55
:1032100043F40012FB685A62012306E0FB685B6A14
:1032200043F48022FB685A62012318462437BD46C6
:1032300080BC704780B485B000AF786039607B682F
:1032400093F82030FB73FB7B012B02D0FB7B022B1E
:1032500028D13B6803F00103002B07D07B681B6873
:103260009A687B681B6842F080029A603B6803F0B2
:103270000203002B07D07B681B689A687B681B6879
:1032800042F400429A603B6803F00403002B07D02D
:103290007B681B689A687B681B6842F400029A602E
:1032A000002306E07B685B6A43F480227B685A62F5
:1032B000012318461437BD4680BC704780B485B0E2
:1032C00000AF78600023FB607B6893F82030FB72CE
:1032D000FB7A012B02D0FB7A022B1DD17B681B6885
:1032E0009B6803F08063002B02D0FB680133FB6016
:1032F0007B681B689B6803F00063002B02D0FB68AF
:103300000133FB607B681B689B6803F08053002BD4
:1033100002D0FB680133FB60FB6818461437BD46DA
:1033200080BC704780B485B000AF786039600023FE
:10333000FB607B6893F82030FB72FB7A012B02D094
:10334000FB7A022B0BD17B681B689A683B689B0653
:103350001A403B689B069A4201D00123FB60FB6840
:1033600018461437BD4680BC704780B487B000AFA4
:10337000F860B9607A603B60FB6893F82030FB75B9
:10338000FB7D012B03D0FB7D022B40F00381BB684A
:10339000002B0ED1FB681B68DB6803F00303002BD6
:1033A00016D1FB685B6A43F40012FB685A62012382
:1033B000F7E0FB681B681B6903F00303002B07D1D0
:1033C000FB685B6A43F40012FB685A620123E8E081
:1033D000FB681A68BB681B331B0113441B6803F0AE
:1033E00004027B689A607B689B68002B0CD1FB68A9
:1033F0001A68BB681B331B0113441B685B0DC3F3C6
:103400000A027B681A600BE0FB681A68BB681B3312
:103410001B0113441B68DB0823F060427B685A6081
:10342000FB681A68BB681B331B0113441B6803F05D
:1034300002027B68DA60FB681A68BB681B331B01F9
:10344000134404331B6803F00803002B03D07B688C
:1034500008221A610BE0FB681A68BB681B331B016A
:10346000134404331B6803F00F027B681A61FB6886
:103470001A68BB681B331B01134404331B681B0A07
:10348000DAB27B689A61FB681A68BB681B331B0160
:10349000134404331B681B0C9AB27B685A61FB68A7
:1034A0001A68BB681B01134403F5DC731B68DAB2AE
:1034B0003B681A70FB681A68BB681B01134403F56C
:1034C000DC731B681A0A3B680133D2B21A70FB68BE
:1034D0001A68BB681B01134403F5DC731B681A0CE4
:1034E0003B680233D2B21A70FB681A68BB681B01D2
:1034F000134403F5DC731B681A0E3B680333D2B226
:103500001A70FB681A68BB681B01134403F5DE736D
:103510001A683B680433D2B21A70FB681A68BB6839
:103520001B01134403F5DE731B681A0A3B6805335D
:10353000D2B21A70FB681A68BB681B01134403F50A
:10354000DE731B681A0C3B680633D2B21A70FB6834
:103550001A68BB681B01134403F5DE731B681A0E5F
:103560003B680733D2B21A70BB68002B08D1FB68E6
:103570001B68DA68FB681B6842F02002DA6007E02B
:10358000FB681B681A69FB681B6842F020021A611D
:10359000002306E0FB685B6A43F48022FB685A6202
:1035A000012318461C37BD4680BC704780B485B0E7
:1035B00000AF786039600023FB607B6893F82030AF
:1035C000FB72FB7A012B02D0FB7A022B0FD13B68F6
:1035D000002B06D17B681B68DB6803F00303FB60EC
:1035E00005E07B681B681B6903F00303FB60FB6855
:1035F00018461437BD4680BC704780B485B000AF14
:10360000786039607B6893F82030FB73FB7B012B7B
:1036100002D0FB7B022B09D17B681B6859697B6850
:103620001B683A680A435A61002306E07B685B6ABC
:1036300043F480227B685A62012318461437BD4642
:1036400080BC704780B58AB000AF786000237B6291
:103650007B681B685B693B627B681B685B68FB611E
:103660007B681B689B68BB617B681B68DB687B6150
:103670007B681B681B693B617B681B689B69FB60FF
:103680003B6A03F00103002B7CD0BB6903F001030C
:10369000002B23D07B681B6801229A60BB6903F072
:1036A0000203002B03D07868FEF7A4FB16E0BB6989
:1036B00003F00403002B04D07B6A43F400637B62B5
:1036C0000CE0BB6903F00803002B04D07B6A43F4D1
:1036D00080537B6202E07868FEF7C2FBBB6903F4AB
:1036E0008073002B24D07B681B684FF480729A6033
:1036F000BB6903F40073002B03D07868FEF78CFBE2
:1037000016E0BB6903F48063002B04D07B6A43F4AA
:1037100000537B620CE0BB6903F40063002B04D010
:103720007B6A43F480437B6202E07868FEF7AAFB81
:10373000BB6903F48033002B24D07B681B684FF4F3
:1037400080329A60BB6903F40033002B03D07868A1
:10375000FEF774FB16E0BB6903F48023002B04D052
:103760007B6A43F400437B620CE0BB6903F40023F3
:10377000002B04D07B6A43F480337B6202E07868DC
:10378000FEF792FB3B6A03F00803002B0CD07B6929
:1037900003F01003002B07D07B6A43F400737B62B5
:1037A0007B681B681022DA603B6A03F00403002B7D
:1037B0000BD07B6903F00803002B06D07B681B68E5
:1037C0000822DA60786800F0F4F83B6A03F002033C
:1037D000002B09D07B681B68DB6803F00303002B18
:1037E00002D07868FEF71CFA3B6A03F04003002B16
:1037F0000CD03B6903F01003002B07D07B6A43F425
:1038000080637B627B681B6810221A613B6A03F04D
:103810002003002B0BD03B6903F00803002B06D0DC
:103820007B681B6808221A61786800F0D4F83B6A4C
:1038300003F01003002B09D07B681B681B6903F0A1
:103840000303002B02D0786800F0BCF83B6A03F455
:103850000033002B0BD0FB6903F01003002B06D0C4
:103860007B681B6810225A60786800F0BDF83B6ADC
:1038700003F48033002B0BD0FB6903F00803002B0B
:1038800006D07B681B6808225A60786800F0B5F89B
:103890003B6A03F40043002B7BD0FB6903F0040375
:1038A000002B72D03B6A03F48073002B08D0FB68B6
:1038B00003F00103002B03D07B6A43F001037B621A
:1038C0003B6A03F40073002B08D0FB6803F002038B
:1038D000002B03D07B6A43F002037B623B6A03F454
:1038E0008063002B08D0FB6803F00403002B03D097
:1038F0007B6A43F004037B623B6A03F40063002BA2
:1039000043D0FB6803F07003002B3ED0FB6803F04C
:103910007003602B2BD0602B2ED8502B22D0502B35
:103920002AD8402B19D0402B26D8302B10D0302B42
:1039300022D8102B02D0202B05D01DE07B6A43F04B
:1039400008037B6219E07B6A43F010037B6214E09A
:103950007B6A43F020037B620FE07B6A43F0400305
:103960007B620AE07B6A43F080037B6205E07B6A4E
:1039700043F480737B6200E000BF7B681B689A6938
:103980007B681B6822F070029A617B681B680422C6
:103990005A607B6A002B08D07B685A6A7B6A1A439C
:1039A0007B685A62786800F031F800BF2837BD465E
:1039B00080BD80B483B000AF786000BF0C37BD46D7
:1039C00080BC704780B483B000AF786000BF0C3714
:1039D000BD4680BC704780B483B000AF786000BF44
:1039E0000C37BD4680BC704780B483B000AF7860B0
:1039F00000BF0C37BD4680BC704780B483B000AFB9
:103A0000786000BF0C37BD4680BC704780B483B07F
:103A100000AF786000BF0C37BD4680BC704780B4F3
:103A200085B000AF78607B6893F82030FB73FB7B38
:103A3000012B02D0FB7B022B12D17B681B685B68D9
:103A400003F00203002B02D00423FB7308E07B6821
:103A50001B681B6803F00203002B01D00323FB73D8
:103A6000FB7B18461437BD4680BC704780B483B0DA
:103A700000AF78607B685B6A18460C37BD4680BC37
:103A80007047000080B485B000AF78607B6803F0B9
:103A90000703FB600C4BDB68BB60BA684FF6FF03A3
:103AA0001340BB60FB681A02BB68134343F0BF635B
:103AB00043F40033BB60044ABB68D36000BF1437D3
:103AC000BD4680BC704700BF00ED00E080B400AF91
:103AD000044BDB681B0A03F007031846BD4680BC95
:103AE000704700BF00ED00E080B483B000AF034634
:103AF000FB7197F90730002B0BDBFB7903F01F02FA
:103B0000064997F907305B09012000FA02F241F8F3
:103B1000232000BF0C37BD4680BC704700E100E0A9
:103B200080B483B000AF0346FB7197F90730002BD8
:103B300012DBFB7903F01F020A4997F907305B0992
:103B4000012000FA02F2203341F82320BFF34F8F07
:103B500000BFBFF36F8F00BF00BF0C37BD4680BCF6
:103B6000704700BF00E100E080B483B000AF0346BF
:103B7000FB7197F90730002B0CDBFB7903F01F0278
:103B8000074997F907305B09012000FA02F2603318
:103B900041F8232000BF0C37BD4680BC704700BFF2
:103BA00000E100E080B483B000AF03463960FB71F0
:103BB00097F90730002B0ADB3B68DAB20C4997F91A
:103BC00007301201D2B20B4483F800230AE03B68AD
:103BD000DAB20849FB7903F00F03043B1201D2B2B9
:103BE0000B441A7600BF0C37BD4680BC704700BF3F
:103BF00000E100E000ED00E080B489B000AFF860C3
:103C0000B9607A60FB6803F00703FB61FB69C3F1ED
:103C10000703042B28BF0423BB61FB690433062B75
:103C200002D9FB69033B00E000237B614FF0FF32C8
:103C3000BB6902FA03F3DA43BB681A407B699A4016
:103C40004FF0FF317B6901FA03F3D9437B680B40E6
:103C5000134318462437BD4680BC704780B582B0F8
:103C600000AF78607868FFF70DFF00BF0837BD46EA
:103C700080BD80B586B000AF0346B9607A60FB7343
:103C800000237B61FFF722FF78617A68B968786961
:103C9000FFF7B2FF024697F90F3011461846FFF7BB
:103CA00081FF00BF1837BD4680BD80B582B000AF30
:103CB0000346FB7197F907301846FFF715FF00BF61
:103CC0000837BD4680BD80B582B000AF0346FB71AA
:103CD00097F907301846FFF723FF00BF0837BD46A6
:103CE00080BD80B582B000AF0346FB7197F9073005
:103CF0001846FFF739FF00BF0837BD4680BD0000FA
:103D000080B48BB000AF7860396000237B62002301
:103D10003B6269E101227B6A02FA03F3FB613B68C3
:103D20001B68FA691340BB61BA69FB699A4240F0AB
:103D300058813B685B689A4A93425ED0984A9342A6
:103D400075D8984A934258D0964A93426FD8964A6B
:103D5000934252D0944A934269D8944A93424CD0A9
:103D6000924A934263D8924A934246D0904A9342F1
:103D70005DD8122B2AD8122B59D801A252F823F061
:103D8000FB3D0008D53D0008E73D0008293E00083E
:103D90002F3E00082F3E00082F3E00082F3E00084F
:103DA0002F3E00082F3E00082F3E00082F3E00083F
:103DB0002F3E00082F3E00082F3E00082F3E00082F
:103DC0002F3E0008DD3D0008F13D0008794A93428E
:103DD00013D02CE03B68DB683B6229E03B68DB6882
:103DE00004333B6224E03B68DB6808333B621FE03E
:103DF0003B68DB680C333B621AE03B689B68002B36
:103E000002D104233B6213E03B689B68012B05D180
:103E100008233B627B68FA691A6109E008233B6268
:103E20007B68FA695A6103E000233B6200E000BF4F
:103E3000BB69FF2B01D87B6801E07B6804337B61A1
:103E4000BB69FF2B02D87B6A9B0002E07B6A083BC0
:103E50009B003B617B691A680F213B6901FA03F300
:103E6000DB431A40396A3B6901FA03F31A437B6961
:103E70001A603B685B6803F08053002B00F0B18050
:103E80004D4B9B694C4A43F0010393614A4B9B693C
:103E900003F00103BB60BB68484A7B6A9B0802339E
:103EA00052F82330FB607B6A03F003039B000F2270
:103EB00002FA03F3DB43FA681340FB607B68404A75
:103EC000934213D07B683F4A93420DD07B683E4AB1
:103ED000934207D07B683D4A934201D1032306E019
:103EE000042304E0022302E0012300E000237A6AB5
:103EF00002F0030292009340FA681343FB602F49DB
:103F00007B6A9B080233FA6841F823203B685B68B0
:103F100003F48013002B06D02D4B9A682C49BB6903
:103F200013438B6006E02A4B9A68BB69DB43284940
:103F300013408B603B685B6803F40013002B06D0D2
:103F4000234BDA682249BB691343CB6006E0204B60
:103F5000DA68BB69DB431E491340CB603B685B6892
:103F600003F40033002B06D0194B5A681849BB697B
:103F700013434B6006E0164B5A68BB69DB43144998
:103F800013404B603B685B6803F48033002B21D007
:103F90000F4B1A680E49BB6913430B6021E000BF49
:103FA000000032100000311000002210000021102B
:103FB000000012100000111000100240000001402B
:103FC00000080140000C01400010014000140140B5
:103FD000000401400B4B1A68BB69DB4309491340DD
:103FE0000B607B6A01337B623B681A687B6A22FA4A
:103FF00003F3002B7FF48EAE00BF00BF2C37BD460D
:1040000080BC70470004014080B485B000AF786088
:104010000B467B807B689A687B881340002B02D01C
:104020000123FB7301E00023FB73FB7B184614376D
:10403000BD4680BC704780B483B000AF78600B464B
:104040007B8013467B707B78002B03D07A887B685B
:104050001A6103E07B881A047B681A6100BF0C3781
:10406000BD4680BC7047000080B586B000AF786068
:104070007B68002B01D1012372E27B681B6803F08F
:104080000103002B00F08780924B5B6803F00C0368
:10409000042B0CD08F4B5B6803F00C03082B12D160
:1040A0008C4B5B6803F48033B3F5803F0BD1894BB5
:1040B0001B6803F40033002B6CD07B685B68002B1B
:1040C00068D101234CE27B685B68B3F5803F06D181
:1040D000804B1B687F4A43F4803313602EE07B687B
:1040E0005B68002B0CD17B4B1B687A4A23F480332E
:1040F0001360784B1B68774A23F4802313601DE01C
:104100007B685B68B3F5A02F0CD1724B1B68714ABA
:1041100043F4802313606F4B1B686E4A43F4803373
:1041200013600BE06B4B1B686A4A23F48033136007
:10413000684B1B68674A23F4802313607B685B68C5
:10414000002B13D0FEF746F8386108E0FEF742F87E
:1041500002463B69D31A642B01D9032300E25D4B6D
:104160001B6803F40033002BF0D014E0FEF732F8A4
:10417000386108E0FEF72EF802463B69D31A642B3B
:1041800001D90323ECE1534B1B6803F40033002BEC
:10419000F0D100E000BF7B681B6803F00203002B36
:1041A00063D04C4B5B6803F00C03002B0BD0494BE6
:1041B0005B6803F00C03082B1CD1464B5B6803F4CF
:1041C0008033002B16D1434B1B6803F00203002BF6
:1041D00005D07B681B69012B01D00123C0E13D4B59
:1041E0001B6823F0F8027B685B69DB0039491343E5
:1041F0000B603AE07B681B69002B20D0364B012214
:104200001A60FDF7E7FF386108E0FDF7E3FF0246BB
:104210003B69D31A022B01D90323A1E12D4B1B6863
:1042200003F00203002BF0D02A4B1B6823F0F802A6
:104230007B685B69DB00274913430B6015E0264B65
:1042400000221A60FDF7C6FF386108E0FDF7C2FFE3
:1042500002463B69D31A022B01D9032380E11D4B8F
:104260001B6803F00203002BF0D17B681B6803F08E
:104270000803002B3AD07B689B69002B19D0174BA1
:1042800001221A60FDF7A6FF386108E0FDF7A2FFE2
:1042900002463B69D31A022B01D9032360E10D4B7F
:1042A0005B6A03F00203002BF0D0012000F0CEFA8D
:1042B0001CE00A4B00221A60FDF78CFF38610FE00A
:1042C000FDF788FF02463B69D31A022B08D9032366
:1042D00046E100BF0010024000004242800442421A
:1042E000924B5B6A03F00203002BE9D17B681B68E9
:1042F00003F00403002B00F0A6800023FB758B4B1A
:10430000DB6903F08053002B0DD1884BDB69874AB2
:1043100043F08053D361854BDB6903F08053BB606E
:10432000BB680123FB75824B1B6803F48073002B71
:1043300018D17F4B1B687E4A43F480731360FDF7EE
:1043400049FF386108E0FDF745FF02463B69D31A93
:10435000642B01D9032303E1754B1B6803F48073BD
:10436000002BF0D07B68DB68012B06D16F4B1B6AFA
:104370006E4A43F0010313622DE07B68DB68002B7B
:104380000CD16A4B1B6A694A23F001031362674B25
:104390001B6A664A23F0040313621CE07B68DB6837
:1043A000052B0CD1614B1B6A604A43F00403136276
:1043B0005E4B1B6A5D4A43F0010313620BE05B4BEB
:1043C0001B6A5A4A23F001031362584B1B6A574A6F
:1043D00023F0040313627B68DB68002B15D0FDF724
:1043E000F9FE38610AE0FDF7F5FE02463B69D31A93
:1043F00041F28832934201D90323B1E04B4B1B6A4F
:1044000003F00203002BEED014E0FDF7E3FE386169
:104410000AE0FDF7DFFE02463B69D31A41F288321B
:10442000934201D903239BE0404B1B6A03F0020334
:10443000002BEED1FB7D012B05D13C4BDB693B4AC8
:1044400023F08053D3617B68DB69002B00F0878009
:10445000364B5B6803F00C03082B61D07B68DB698B
:10446000022B46D1334B00221A60FDF7B3FE3861B0
:1044700008E0FDF7AFFE02463B69D31A022B01D9D3
:1044800003236DE0294B1B6803F00073002BF0D170
:104490007B681B6AB3F5803F08D1244B5B6823F42B
:1044A00000327B689B68214913434B601F4B5B685C
:1044B00023F474127B68196A7B685B6A0B431B499F
:1044C00013434B601B4B01221A60FDF783FE3861DA
:1044D00008E0FDF77FFE02463B69D31A022B01D9A3
:1044E00003233DE0114B1B6803F00073002BF0D059
:1044F00035E0104B00221A60FDF76CFE386108E0D1
:10450000FDF768FE02463B69D31A022B01D903234B
:1045100026E0064B1B6803F00073002BF0D11EE071
:104520007B68DB69012B07D1012319E000100240F1
:1045300000700040600042420B4B5B68FB60FB6810
:1045400003F480327B681B6A9A4206D1FB6803F44D
:1045500070127B685B6A9A4201D0012300E000235D
:1045600018461837BD4680BD0010024080B584B0A3
:1045700000AF786039607B68002B01D10123D0E067
:104580006A4B1B6803F007033A689A4210D9674BDD
:104590001B6823F0070265493B6813430B60634BBC
:1045A0001B6803F007033A689A4201D00123B8E080
:1045B0007B681B6803F00203002B20D07B681B681C
:1045C00003F00403002B05D0594B5B68584A43F4B1
:1045D000E06353607B681B6803F00803002B05D081
:1045E000534B5B68524A43F460535360504B5B68D3
:1045F00023F0F0027B689B684D4913434B607B6856
:104600001B6803F00103002B40D07B685B68012B23
:1046100007D1474B1B6803F40033002B15D101234E
:104620007FE07B685B68022B07D1414B1B6803F07E
:104630000073002B09D1012373E03D4B1B6803F08D
:104640000203002B01D101236BE0394B5B6823F09F
:1046500003027B685B68364913434B60FDF7BAFD84
:10466000F8600AE0FDF7B6FD0246FB68D31A41F296
:104670008832934201D9032353E02D4B5B6803F04A
:104680000C027B685B689B009A42EBD1274B1B684E
:1046900003F007033A689A4210D2244B1B6823F0B8
:1046A000070222493B6813430B60204B1B6803F051
:1046B00007033A689A4201D0012332E07B681B6805
:1046C00003F00403002B08D0194B5B6823F4E0626D
:1046D0007B68DB68164913434B607B681B6803F0FB
:1046E0000803002B09D0124B5B6823F460527B68EF
:1046F0001B69DB000E4913434B6000F021F80246B2
:104700000B4B5B681B0903F00F030A49CB5C22FAD1
:1047100003F3094A1360094B1B681846FDF7F4FBC5
:10472000002318461037BD4680BD00BF0020024060
:1047300000100240347B00082000002024000020EC
:1047400080B487B000AF0023FB600023BB60002370
:104750007B6100237B6000233B611E4B5B68FB6039
:10476000FB6803F00C03042B02D0082B03D027E0D6
:10477000194B3B6127E0FB689B0C03F00F03174AC2
:10478000D35C7B60FB6803F48033002B10D0114BAB
:104790005B685B0C03F00103114AD35CBB607B6870
:1047A0000D4A03FB02F2BB68B2FBF3F37B6104E04A
:1047B0007B680C4A02FB03F37B617B693B6102E08F
:1047C000054B3B6100BF3B6918461C37BD4680BCAA
:1047D000704700BF0010024000127A004C7B0008B6
:1047E0005C7B000800093D0080B400AF024B1B68F1
:1047F0001846BD4680BC70472000002080B500AF41
:10480000FFF7F2FF0246054B5B681B0A03F0070344
:104810000349CB5C22FA03F3184680BD0010024026
:10482000447B000880B500AFFFF7DEFF0246054B72
:104830005B68DB0A03F007030349CB5C22FA03F34E
:10484000184680BD00100240447B000880B485B04B
:1048500000AF78600A4B1B680A4AA2FB03235B0A7D
:104860007A6802FB03F3FB6000BFFB685A1EFA6024
:10487000002BF9D100BF00BF1437BD4680BC704784
:1048800020000020D34D621080B586B000AF786064
:1048900000233B610023FB607B681B6803F001037E
:1048A000002B7DD00023FB754F4BDB6903F0805359
:1048B000002B0DD14C4BDB694B4A43F08053D36145
:1048C000494BDB6903F08053BB60BB680123FB7578
:1048D000464B1B6803F48073002B18D1434B1B68B5
:1048E000424A43F480731360FDF774FC386108E0BA
:1048F000FDF770FC02463B69D31A642B01D90323F0
:104900006DE03A4B1B6803F48073002BF0D0364BFC
:104910001B6A03F44073FB60FB68002B2ED07B689E
:104920005B6803F44073FA689A4227D02E4B1B6AE7
:1049300023F44073FB602E4B01221A602C4B0022A3
:104940001A60294AFB681362FB6803F00103002B1D
:1049500014D0FDF73FFC38610AE0FDF73BFC02464E
:104960003B69D31A41F28832934201D9032336E0DE
:104970001D4B1B6A03F00203002BEED01A4B1B6A7F
:1049800023F440727B685B68174913430B62FB7D1D
:10499000012B05D1144BDB69134A23F08053D361FB
:1049A0007B681B6803F00203002B08D00E4B5B688A
:1049B00023F440427B689B680B4913434B607B6840
:1049C0001B6803F01003002B08D0074B5B6823F42F
:1049D00080027B68DB68044913434B600023184660
:1049E0001837BD4680BD00BF001002400070004077
:1049F0004004424280B588B000AF786000237B61FC
:104A00000023FB6100233B610023FB600023BB61AB
:104A10007B68102B0AD07B68102B00F28A807B68A1
:104A2000012B45D07B68022B75D082E0464B5B683A
:104A3000FB60454B1B6803F08073002B7BD0FB6849
:104A40009B0C03F00F03414AD35C3B61FB6803F40A
:104A50008033002B15D03C4B5B685B0C03F00103EB
:104A60003B4AD35C7B61FB6803F48033002B0DD0A1
:104A7000384A7B69B2FBF3F23B6902FB03F3FB614B
:104A800004E03B69344A02FB03F3FB612E4B5B6895
:104A900003F48003B3F5800F02D1FB69BB614AE0E8
:104AA000FB695B002D4AA2FB03235B08BB6142E06C
:104AB000254B1B6AFB60FB6803F44073B3F5807FF2
:104AC00008D1FB6803F00203002B03D04FF400432E
:104AD000BB611FE0FB6803F44073B3F5007F09D1AD
:104AE000194B5B6A03F00203002B03D049F64043E5
:104AF000BB610FE0FB6803F44073B3F5407F1CD14A
:104B0000114B1B6803F40033002B16D04FF22443E3
:104B1000BB6112E011E0FFF785FE02460A4B5B68BD
:104B20009B0B03F0030301335B00B2FBF3F3BB61A8
:104B300004E000BF02E000BF00E000BFBB69184610
:104B40002037BD4680BD00BF00100240607B0008DA
:104B5000707B000800127A0000093D00ABAAAAAAE7
:104B600080B582B000AF78607B68002B01D1012353
:104B700041E07B6893F83D30DBB2002B06D17B68C7
:104B8000002283F83C207868FCF7C8FF7B6802228B
:104B900083F83D207B681A687B6804331946104609
:104BA00000F03EFC7B68012283F846207B680122EE
:104BB00083F83E207B68012283F83F207B68012236
:104BC00083F840207B68012283F841207B68012222
:104BD00083F842207B68012283F843207B6801220E
:104BE00083F844207B68012283F845207B680122FA
:104BF00083F83D20002318460837BD4680BD0000DD
:104C000080B485B000AF78607B6893F83D30DBB24C
:104C1000012B01D001233AE07B68022283F83D207A
:104C20007B681B68DA687B681B6842F00102DA6007
:104C30007B681B68184A93420ED07B681B68B3F1EF
:104C4000804F09D07B681B68144A934204D07B686C
:104C50001B68134A934211D17B681B689B6803F061
:104C60000703FB60FB68062B10D07B681B681A6883
:104C70007B681B6842F001021A6007E07B681B68D2
:104C80001A687B681B6842F001021A60002318460C
:104C90001437BD4680BC7047002C01400004004022
:104CA0000008004080B483B000AF78607B681B6868
:104CB000DA687B681B6822F00102DA607B681B6897
:104CC0001A6A41F211131340002B0FD17B681B6845
:104CD0001A6A40F244431340002B07D17B681B68DB
:104CE0001A687B681B6822F001021A607B68012247
:104CF00083F83D20002318460C37BD4680BC704722
:104D000080B582B000AF78607B68002B01D10123B1
:104D100041E07B6893F83D30DBB2002B06D17B6825
:104D2000002283F83C207868FCF728FF7B68022289
:104D300083F83D207B681A687B6804331946104667
:104D400000F06EFB7B68012283F846207B6801221D
:104D500083F83E207B68012283F83F207B68012294
:104D600083F840207B68012283F841207B68012280
:104D700083F842207B68012283F843207B6801226C
:104D800083F844207B68012283F845207B68012258
:104D900083F83D20002318460837BD4680BD00003B
:104DA00080B584B000AF786039603B68002B09D1D2
:104DB0007B6893F83E30DBB2012B14BF0123002344
:104DC000DBB222E03B68042B09D17B6893F83F30CB
:104DD000DBB2012B14BF01230023DBB215E03B68DB
:104DE000082B09D17B6893F84030DBB2012B14BF4C
:104DF00001230023DBB208E07B6893F84130DBB28B
:104E0000012B14BF01230023DBB2002B01D00123AF
:104E10005EE03B68002B04D17B68022283F83E20D1
:104E200013E03B68042B04D17B68022283F83F2007
:104E30000BE03B68082B04D17B68022283F84020FA
:104E400003E07B68022283F841207B681B68012213
:104E50003968184600F070FD7B681B681E4A934253
:104E600007D17B681B685A6C7B681B6842F4004260
:104E70005A647B681B68184A93420ED07B681B6893
:104E8000B3F1804F09D07B681B68144A934204D069
:104E90007B681B68124A934211D17B681B689B6830
:104EA00003F00703FB60FB68062B10D07B681B68D0
:104EB0001A687B681B6842F001021A6007E07B6891
:104EC0001B681A687B681B6842F001021A600023A5
:104ED00018461037BD4680BD002C0140000400403C
:104EE0000008004080B584B000AF78607B681B6824
:104EF000DB68FB607B681B681B69BB60BB6803F0F9
:104F00000203002B20D0FB6803F00203002B1BD010
:104F10007B681B686FF002021A617B6801221A77B6
:104F20007B681B689B6903F00303002B03D0786840
:104F300000F05AFA05E0786800F04DFA786800F061
:104F40005CFA7B6800221A77BB6803F00403002B2D
:104F500020D0FB6803F00403002B1BD07B681B6888
:104F60006FF004021A617B6802221A777B681B6863
:104F70009B6903F44073002B03D0786800F034FA87
:104F800005E0786800F027FA786800F036FA7B6868
:104F900000221A77BB6803F00803002B20D0FB68BF
:104FA00003F00803002B1BD07B681B686FF008021E
:104FB0001A617B6804221A777B681B68DB6903F03F
:104FC0000303002B03D0786800F00EFA05E0786840
:104FD00000F001FA786800F010FA7B6800221A7776
:104FE000BB6803F01003002B20D0FB6803F0100314
:104FF000002B1BD07B681B686FF010021A617B6866
:1050000008221A777B681B68DB6903F44073002B66
:1050100003D0786800F0E8F905E0786800F0DBF983
:10502000786800F0EAF97B6800221A77BB6803F021
:105030000103002B0CD0FB6803F00103002B07D009
:105040007B681B686FF001021A617868FCF7C6FF85
:10505000BB6803F08003002B0CD0FB6803F08003D7
:10506000002B07D07B681B686FF080021A6178689C
:1050700000F0EDFCBB6803F04003002B0CD0FB6894
:1050800003F04003002B07D07B681B686FF04002E1
:105090001A61786800F0BAF9BB6803F02003002BAE
:1050A0000CD0FB6803F02003002B07D07B681B6843
:1050B0006FF020021A61786800F0C0FC00BF103762
:1050C000BD4680BD80B586B000AFF860B9607A603B
:1050D0000023FB75FB6893F83C30012B01D10223C0
:1050E000AEE0FB68012283F83C207B680C2B00F2C9
:1050F0009F8001A252F823F02D5100083152000880
:1051000031520008315200086D5100083152000838
:105110003152000831520008AF51000831520008E6
:105120003152000831520008EF510008FB681B683B
:10513000B968184600F0E2F9FB681B689A69FB68D9
:105140001B6842F008029A61FB681B689A69FB6859
:105150001B6822F004029A61FB681B689969BB68AE
:105160001A69FB681B680A439A6164E0FB681B6864
:10517000B968184600F028FAFB681B689A69FB6852
:105180001B6842F400629A61FB681B689A69FB68BD
:105190001B6822F480629A61FB681B689969BB688E
:1051A0001B691A02FB681B680A439A6143E0FB68AB
:1051B0001B68B968184600F071FAFB681B68DA6969
:1051C000FB681B6842F00802DA61FB681B68DA6959
:1051D000FB681B6822F00402DA61FB681B68D9696E
:1051E000BB681A69FB681B680A43DA6123E0FB6845
:1051F0001B68B968184600F0BBFAFB681B68DA69DF
:10520000FB681B6842F40062DA61FB681B68DA69BC
:10521000FB681B6822F48062DA61FB681B68D9694D
:10522000BB681B691A02FB681B680A43DA6102E06B
:105230000123FB7500BFFB68002283F83C20FB7D47
:1052400018461837BD4680BD80B584B000AF786081
:1052500039600023FB737B6893F83C30012B01D14C
:105260000223B4E07B68012283F83C207B680222A1
:1052700083F83D207B681B689B68BB60BB6823F09C
:105280007703BB60BB6823F47F43BB607B681B680C
:10529000BA689A603B681B68B3F5005F3ED0B3F50F
:1052A000005F00F28780B3F5805F00F08680B3F581
:1052B000805F7FD8702B1AD0702B7BD8602B50D09A
:1052C000602B77D8502B3CD0502B73D8402B58D024
:1052D000402B6FD8302B64D0302B6BD8202B60D074
:1052E000202B67D8002B5CD0102B5AD062E07B6853
:1052F00018683B6899683B685A683B68DB6800F04F
:10530000FCFA7B681B689B68BB60BB6843F0770353
:10531000BB607B681B68BA689A604FE07B6818685E
:105320003B6899683B685A683B68DB6800F0E5FABF
:105330007B681B689A687B681B6842F480429A60AD
:105340003CE07B6818683B6859683B68DB681A4634
:1053500000F05CFA7B681B685021184600F0B3FA35
:105360002CE07B6818683B6859683B68DB681A4624
:1053700000F07AFA7B681B686021184600F0A3FAF7
:105380001CE07B6818683B6859683B68DB681A4614
:1053900000F03CFA7B681B684021184600F093FA45
:1053A0000CE07B681A683B681B681946104600F0E1
:1053B0008AFA03E00123FB7300E000BF7B6801224F
:1053C00083F83D207B68002283F83C20FB7B184655
:1053D0001037BD4680BD80B483B000AF786000BF99
:1053E0000C37BD4680BC704780B483B000AF786096
:1053F00000BF0C37BD4680BC704780B483B000AF9F
:10540000786000BF0C37BD4680BC704780B483B065
:1054100000AF786000BF0C37BD4680BC704700000D
:1054200080B485B000AF786039607B681B68FB6032
:105430007B682F4A93420BD07B68B3F1804F07D033
:105440007B682C4A934203D07B682B4A934208D155
:10545000FB6823F07003FB603B685B68FA681343EA
:10546000FB607B68224A93420BD07B68B3F1804F8C
:1054700007D07B681F4A934203D07B681E4A934241
:1054800008D1FB6823F44073FB603B68DB68FA6873
:105490001343FB60FB6823F080023B685B691343A6
:1054A000FB607B68FA681A603B689A687B68DA621E
:1054B0003B681A687B689A627B680D4A934203D105
:1054C0003B681A697B681A637B6801225A617B68B2
:1054D0001B6903F00103002B05D07B681B6923F0D7
:1054E00001027B681A6100BF1437BD4680BC70475B
:1054F000002C0140000400400008004080B487B048
:1055000000AF786039607B681B6A7B617B681B6ACF
:1055100023F001027B681A627B685B683B617B68F1
:105520009B69FB60FB6823F07003FB60FB6823F062
:105530000303FB603B681B68FA681343FB607B69ED
:1055400023F002037B613B689B687A6913437B61AC
:105550007B681C4A93420CD17B6923F008037B6172
:105560003B68DB687A6913437B617B6923F0040342
:105570007B617B68134A934211D13B6923F48073AA
:105580003B613B6923F400733B613B685B693A69AB
:1055900013433B613B689B693A6913433B617B68FA
:1055A0003A695A607B68FA689A613B685A687B6816
:1055B0005A637B687A691A6200BF1C37BD4680BC9B
:1055C000704700BF002C014080B487B000AF786006
:1055D00039607B681B6A7B617B681B6A23F0100261
:1055E0007B681A627B685B683B617B689B69FB60D8
:1055F000FB6823F4E043FB60FB6823F44073FB602B
:105600003B681B681B02FA681343FB607B6923F04D
:1056100020037B613B689B681B017A6913437B61B4
:105620007B681D4A93420DD17B6923F080037B6127
:105630003B68DB681B017A6913437B617B6923F05C
:1056400040037B617B68144A934213D13B6923F486
:1056500080633B613B6923F400633B613B685B69AA
:105660009B003A6913433B613B689B699B003A6925
:1056700013433B617B683A695A607B68FA689A61B8
:105680003B685A687B689A637B687A691A6200BFD4
:105690001C37BD4680BC7047002C014080B487B0E9
:1056A00000AF786039607B681B6A7B617B681B6A2E
:1056B00023F480727B681A627B685B683B617B685D
:1056C000DB69FB60FB6823F07003FB60FB6823F081
:1056D0000303FB603B681B68FA681343FB607B694C
:1056E00023F400737B613B689B681B027A69134358
:1056F0007B617B681D4A93420DD17B6923F4006373
:105700007B613B68DB681B027A6913437B617B69C1
:1057100023F480637B617B68144A934213D13B6915
:1057200023F480533B613B6923F400533B613B68A6
:105730005B691B013A6913433B613B689B691B0131
:105740003A6913433B617B683A695A607B68FA683F
:10575000DA613B685A687B68DA637B687A691A6247
:1057600000BF1C37BD4680BC704700BF002C014005
:1057700080B487B000AF786039607B681B6A3B619A
:105780007B681B6A23F480527B681A627B685B68C3
:105790007B617B68DB69FB60FB6823F4E043FB60B3
:1057A000FB6823F44073FB603B681B681B02FA68CC
:1057B0001343FB603B6923F400533B613B689B68E8
:1057C0001B033A6913433B617B680F4A934209D13B
:1057D0007B6923F480437B613B685B699B017A6949
:1057E00013437B617B687A695A607B68FA68DA6187
:1057F0003B685A687B681A647B683A691A6200BF22
:105800001C37BD4680BC7047002C014080B487B077
:1058100000AFF860B9607A60FB681B6A7B61FB6867
:105820001B6A23F00102FB681A62FB689B693B61FB
:105830003B6923F0F0033B617B681B013A6913432A
:105840003B617B6923F00A037B617A69BB68134380
:105850007B61FB683A699A61FB687A691A6200BFEA
:105860001C37BD4680BC704780B487B000AFF8607D
:10587000B9607A60FB681B6A7B61FB681B6A23F076
:105880001002FB681A62FB689B693B613B6923F469
:1058900070433B617B681B033A6913433B617B693F
:1058A00023F0A0037B61BB681B017A6913437B6112
:1058B000FB683A699A61FB687A691A6200BF1C3713
:1058C000BD4680BC704780B485B000AF7860396059
:1058D0007B689B68FB60FB6823F07003FB603A68A1
:1058E000FB68134343F00703FB607B68FA689A6028
:1058F00000BF1437BD4680BC704780B487B000AF8E
:10590000F860B9607A603B60FB689B687B617B698B
:1059100023F47F437B613B681A027B681A43BB68B0
:1059200013437A6913437B61FB687A699A6000BF0D
:105930001C37BD4680BC704780B487B000AFF860AC
:10594000B9607A60BB6803F01F03012202FA03F317
:105950007B61FB681A6A7B69DB431A40FB681A6249
:10596000FB681A6ABB6803F01F03796801FA03F346
:105970001A43FB681A6200BF1C37BD4680BC7047E3
:1059800080B485B000AF786039607B6893F83C30B4
:10599000012B01D1022346E07B68012283F83C20E1
:1059A0007B68022283F83D207B681B685B68FB6094
:1059B0007B681B689B68BB60FB6823F07003FB601F
:1059C0003B681B68FA681343FB607B681B68FA68D6
:1059D0005A607B681B68164A93420ED07B681B682E
:1059E000B3F1804F09D07B681B68124A934204D000
:1059F0007B681B68104A93420CD1BB6823F080037C
:105A0000BB603B685B68BA681343BB607B681B681C
:105A1000BA689A607B68012283F83D207B68002287
:105A200083F83C20002318461437BD4680BC7047DD
:105A3000002C0140000400400008004080B483B006
:105A400000AF786000BF0C37BD4680BC704780B4A3
:105A500083B000AF786000BF0C37BD4680BC704794
:105A600080B483B000AF78607B6803F108027B6884
:105A70005A607B684FF0FF329A607B6803F108023E
:105A80007B68DA607B6803F108027B681A617B68D7
:105A900000221A6000BF0C37BD4680BC704780B43E
:105AA00083B000AF78607B6800221A6100BF0C37BA
:105AB000BD4680BC704780B485B000AF7860396067
:105AC0007B685B68FB603B68FA685A60FB689A68B1
:105AD0003B689A60FB689B683A685A60FB683A6862
