:020000040800F2
:1000000000500020411C0008891C0008891C0008C1
:10001000891C0008891C0008891C000800000000D9
:100020000000000000000000000000000166000861
:10003000891C0008000000001168000859680008C9
:10004000891C0008891C0008891C0008891C0008FC
:10005000891C0008891C0008891C0008891C0008EC
:10006000891C0008891C0008891C0008891C0008DC
:10007000891C0008891C0008891C0008891C0008CC
:10008000891C0008891C0008891C0008111A000836
:10009000FD190008891C0008891C0008891C00083B
:1000A000891C0008891C0008891C0008891C00089C
:1000B000251A0008891C0008891C0008891C0008F2
:1000C000891C0008891C0008891C0008891C00087C
:1000D000891C0008891C0008891C0008891C00086C
:1000E000891C0008891C0008891C00080000000009
:1000F0000000000000000000000000000000000000
:0C01000000000000000000005FF808F1A3
:1001100010B5054C237833B9044B13B10448AFF341
:1001200000800123237010BD280000200000000083
:10013000D469000808B5034B1BB103490348AFF36A
:10014000008008BD000000002C000020D4690008D9
:1001500080B500AF01F09AFD01F00BFD01F0F4F95C
:1001600001F07EF901F0BAF9124802F01FFA0346D5
:10017000002B01D001F058FD00F04EFF01F040F9D6
:1001800000F01CF80C4802F083FC0346002B01D061
:1001900001F04AFD0321084802F0B9FF0346002B95
:1001A00001D001F041FD05F0AFFC01F03DFD002361
:1001B000184680BD440000207400002080B58AB03D
:1001C00004AF00230093614B614A0C21142004F01A
:1001D000CFFD03465F4A1360002300935E4B5F4AE6
:1001E0000E21102004F0C4FD03465D4A1360594BF4
:1001F0001B68002B0BD14FF0500383F31188BFF322
:100200006F8FBFF34F8F7B6100BF00BFFDE7544B83
:100210001B68002B0BD14FF0500383F31188BFF301
:100220006F8FBFF34F8F3B6100BF00BFFDE7494BAE
:100230001B684C49184605F039FA494B1B684A4976
:10024000184605F033FA494B0293494B01930523B5
:10025000009300234FF4A0724649474805F04EFA38
:100260000346464A1360464B0293464B01930423D0
:10027000009300234FF480723B49434805F03EFA57
:100280000346424A1360424B0293424B01930323BD
:10029000009300234FF4A0723F49404805F02EFA26
:1002A00003463F4A13603F4B02933F4B01930223A7
:1002B00000930023A0223D493D4805F01FFA034664
:1002C0003C4A13602D4B1B68002B0BD14FF05003A1
:1002D00083F31188BFF36F8FBFF34F8FFB6000BFB5
:1002E00000BFFDE7294B1B68002B0BD14FF05003DB
:1002F00083F31188BFF36F8FBFF34F8FBB6000BFD5
:1003000000BFFDE7264B1B68002B0BD14FF05003BD
:1003100083F31188BFF36F8FBFF34F8F7B6000BFF4
:1003200000BFFDE7234B1B68002B0BD14FF05003A0
:1003300083F31188BFF36F8FBFF34F8F3B6000BF14
:1003400000BFFDE700BF1837BD4680BD1401002087
:10035000A40100200C0100205C0100209402002078
:1003600010010020EC690008F869000884030020EF
:10037000B4040020006A0008B903000874030020D8
:10038000D0030020B40900209D0400087803002059
:100390001C040020B40D00200C6A00085D05000854
:1003A0007C03002068040020B4120020186A0008B2
:1003B000190600088003002080B58CB000AF78607B
:1003C00005F0B0FCF86201233B62012000F07CFDE7
:1003D00005F0A8FCF8610023BB62FA6AFB69D31A36
:1003E000002B03DDFA6AFB69D31ABB62294B1B6839
:1003F00007F10C01BA6A184604F0F2FE0346012B1D
:1004000023D107F10C03184600F08AF9002387F87E
:10041000273014E01F4B1B6807F10C01002218461F
:1004200004F0DEFE0346012B0ED107F10C03184643
:1004300000F076F997F82730013387F8273097F8DE
:100440002730062BE6D900E000BF05F06BFCF86111
:10045000FA69FB6AD31A002BBADB00F013F90346E2
:10046000BB610D4B9B68BA699A4202D90A4ABB69C3
:10047000936001F039FC0346184600F065FAFA6A09
:100480003B6A1344FB62FA69FB6AD31A002BF6DA63
:100490009EE700BF0C0100200000002080B586B060
:1004A00000AF7860264B1B6807F108014FF0FF3260
:1004B000184604F095FE0346012B3FD13B891A46AE
:1004C000204B1A6000F096FB0346002B0DD007F17D
:1004D0000803184600F0F4FB0346002B05D01A4B26
:1004E0001B680133184A136029E0184B1B6801335D
:1004F000164A1360164803F043F80346154A136082
:100500007B7D002B16D03B7D012B13D83B7D013327
:10051000DBB23B750A4B186807F108010123002282
:1005200004F0BEFC0346012B04D00B4B1B680133C7
:10053000094A1360642005F0B1FAB3E700BFB1E7E0
:100540001001002008010020FC0000200001002014
:100550007400002004010020F800002080B586B05F
:1005600000AF786007F10C0300221A605A609A60AD
:1005700001233B730023BB6000F0C3FE034683F0FE
:100580000103DBB2002B1DD000233B6100233B7530
:100590001E4B186807F10C010023002204F080FCB8
:1005A0000346012B05D11A4B1B680133184A13600F
:1005B00004E0184B1B680133164A1360642005F0F1
:1005C0006DFAD7E74FF4487005F068FA07F10803B1
:1005D000184600F0ABFE03463B75BB683B610B4B16
:1005E000186807F10C010023002204F059FC0346AF
:1005F000012B05D1064B1B680133054A1360B9E78F
:10060000044B1B680133034A1360B3E70C0100205D
:10061000EC000020F000002080B588B000AF7860CA
:1006200005F080FB0346BB614FF4FA73FB6107F1F1
:100630000C0300221A605A609A6002233B7307F190
:100640001803F969184605F0A9F90B4B186807F16A
:100650000C010023002204F023FC0346012B05D1EA
:10066000064B1B680133054A1360E8E7044B1B681F
:100670000133034A1360E2E70C010020EC00002084
:10068000F000002080B582B000AF104801F00EFCF1
:100690000346002B01D0002314E001210B4801F098
:1006A000DFFC0346002B04D0084801F0ADFC00231A
:1006B00008E0064801F0DAFD0346FB80034801F03C
:1006C000A3FCFB8818460837BD4680BD44000020C7
:1006D00080B485B000AF78607B68322B01D80023EE
:1006E00016E07B6840F2DB52934201D964230FE0AD
:1006F0007B68642202FB03F3A3F59C53083B074A83
:10070000A2FB03239B0AFB60FB68642B28BF6423C6
:1007100018461437BD4680BC704700BFA5F9C9B460
:1007200080B584B000AF78607B681B78022B1ED048
:10073000022B32DC002B02D0012B0FD02DE07B6886
:100740001B79184600F064F90346FB73FB7B002B12
:1007500025D0FB7B184600F02BF820E07B685A6818
:100760007B681B7A1946104600F0A4F81AE00F4B7C
:100770009B681846FFF7ACFF03460C4A53600B4BCF
:1007800000229A60094B9B7B002B03D1074B1B7DFA
:10079000022B06D100F04CFB03E000BF02E000BFDB
:1007A00000E000BF00BF1037BD4680BD0000002044
:1007B00080B582B000AF0346FB71FB79013B072B8C
:1007C00071D801A252F823F0E907000815080008C3
:1007D000290800083D0800084F080008850800089F
:1007E0009308000893080008314B1B7D022B07D1AA
:1007F0002F4B5A7DFB790021184600F0CBFA53E0CD
:100800002B4B01229A73FB7900220121184600F03C
:10081000C1FA49E0264B00229A73FB79002201219C
:10082000184600F0B7FA3FE0012000F0ABF8FB7982
:1008300000220121184600F0ADFA35E000F0C8F8BA
:10084000FB7900220121184600F0A4FA2CE0184B95
:100850001B7D022B07D1164B5A7DFB7900211846D0
:1008600000F098FA20E0124B0122DA7301F03CFA12
:1008700003460F4A1361FB7900220121184600F05C
:1008800089FA11E0FB7900220121184600F082FA72
:100890000AE0012000F018FBFB7900220121184634
:1008A00000F078FA00E000BF00BF0837BD4680BD09
:1008B0000000002080B582B000AF78600B46FB706E
:1008C000FB78002B1FD01D4A7B6813601B4B012255
:1008D0001A731A4B1B681A4A934203DA174B184AC9
:1008E0001A6009E0154B1B6843F2D402934203DD02
:1008F000124B43F2D4021A60104B01225A73114B6F
:1009000000221A7017E00D4B00225A730D4B1B7812
:10091000FF2B05D00B4B1B780133DAB2094B1A7051
:10092000084B1B78092B06D9044B5B7D002B02D1A9
:10093000032000F027F80837BD4680BD00000020E6
:1009400084EAFFFFE400002080B582B000AF786049
:100950000B4BDB7B002B0ED0094B1B7D022B0AD0EF
:10096000074B1B697A68D31A41F28732934202D946
:10097000022000F007F800BF0837BD4680BD00BF69
:100980000000002080B584B000AF0346FB710F4B20
:100990005B7D002B0CBF01230023FB73FB7B002B33
:1009A00002D00A4AFB795375084B02221A75074B8D
:1009B0000022DA73FB7B002B03D0FB79184600F092
:1009C000C5FA00BF1037BD4680BD00BF0000002043
:1009D00080B400AF0C4B00221A750B4B00225A75E5
:1009E000094B01229A73084B0022DA73064B00224E
:1009F0005A60054B00229A60044B00221A7000BF17
:100A0000BD4680BC704700BF00000020E40000200D
:100A100080B483B000AF0346FB71FB79602B05D92E
:100A2000FB797A2B02D8FB79203BFB71FB79413BA8
:100A3000172B43D801A252F823F000BF9D0A0008EB
:100A4000BD0A0008BD0A0008A50A0008BD0A000882
:100A5000B10A0008BD0A0008BD0A0008B50A00086E
:100A6000BD0A0008BD0A0008BD0A0008BD0A00084A
:100A7000BD0A0008BD0A0008BD0A0008BD0A00083A
:100A8000A90A0008B90A0008AD0A0008BD0A000852
:100A9000BD0A0008BD0A0008A10A000801230EE0F3
:100AA00002230CE003230AE0042308E0052306E008
:100AB000062304E0072302E0082300E00023184691
:100AC0000C37BD4680BC704780B483B000AF03468E
:100AD000FB71FB79013B072B22D801A252F823F0CE
:100AE000010B0008050B0008090B00080D0B00089E
:100AF000110B0008150B0008190B00081D0B00084E
:100B000041230EE058230CE044230AE0522308E07E
:100B1000542306E0462304E0492302E0532300E087
:100B20003F2318460C37BD4680BC704780B588B05F
:100B300000AF396011461A460346FB800B467B71B5
:100B400013463B7107F10C0300221A605A609A6049
:100B50009A81FB88B3F5006F08D27B79082B05D802
:100B60007B79002B04D03B68002B01D1002337E0B8
:100B7000FB88BB817B79BB733B797B767B79002BD0
:100B800007D07A7907F10C0303333968184605F06A
:100B900013FF3B79002B09D0134B186807F10C01A8
:100BA0000123002204F07CF9034608E00E4B18688C
:100BB00007F10C010023002204F072F90346FB61E7
:100BC000FB69012B06D1094B1B680133074A1360EF
:100BD000012305E0064B1B680133054A136000231F
:100BE00018462037BD4680BD10010020F4000020CB
:100BF000F800002080B582B000AF2F4802F099FCC9
:100C00000346FB712C4B1B689B6903F00403002B0C
:100C100014BF01230023BB7101F066F83860FB7933
:100C2000022B07D1BB7983F00103DBB2002B01D08B
:100C300001233DE0214B1B683A68D31A632B01D88E
:100C4000002335E01D4A3B681360142002F0C5FD07
:100C5000132002F0C2FD184801F05EFF164801F0B3
:100C600017FF0346002B07D0142002F0A8FD132025
:100C700002F0A5FD00231BE003210F4802F047FA14
:100C80000346002B07D0142002F099FD132002F038
:100C900096FD00230CE0142002F0ADFD132002F0BD
:100CA000AAFD142002F08BFD132002F088FD012321
:100CB00018460837BD4680BD74000020E8000020BB
:100CC00080B58AB000AF786007F10C0300221A608B
:100CD0005A609A60DA601A615A6105F023F8786206
:100CE0000BE005F01FF802467B6AD31A022B01D9EC
:100CF000002348E0012004F0D1FE254802F068F806
:100D00000346002BEDD07B681B88FB6000237B61D2
:100D10000023BB617B689B78FB61002387F8203050
:100D20000021012005F0E2FA7B68DA1C07F10803D4
:100D300007F10C01164801F038FF0346002B01D0E3
:100D4000002320E00A21012005F0D0FA0346002B01
:100D50000ED1BB6819460E4802F06EF80346002B10
:100D600004D0BB6819460A4801F0EEFF00230AE0F0
:100D7000BB681946064802F05FF80346002B0CBF1B
:100D800001230023DBB218462837BD4680BD00BFD3
:100D90007400002080B586B000AF0346FB710B469F
:100DA000BB7113467B71214B1B7D002B05D11F4B63
:100DB0005B7B002B01D0012300E00023FB751B4B64
:100DC0005B68642B03D8194B5B68DBB200E06423DB
:100DD000BB75FB791846FFF777FE03463B73BB797B
:100DE000002B01D0012300E000237B737B79BB73D0
:100DF0000E4B1B7DFB730D4B9B7B002B01D0012306
:100E000000E000233B74FB7D7B74BB7DBB74074B10
:100E10005B7DFB7407F10C01012308224FF4C170C4
:100E2000FFF784FE00BF1837BD4680BD00000020DC
:100E300080B584B000AF234B1B68FB81214B5B68FE
:100E4000642B03D81F4B5B68DBB200E064237B7329
:100E50001C4B1B7D002B05D11A4B5B7B002B01D05B
:100E6000012300E000233B73FB89DBB23B71FB896C
:100E70001B0A9BB2DBB27B717B7BBB71114B1B7D71
:100E8000FB713B7B3B720F4B9B7B002B01D0012303
:100E900000E000237B720B4BDB7B002B01D0012396
:100EA00000E00023BB72074B5B7DFB72391D002302
:100EB000082240F20220FFF739FE00BF1037BD467E
:100EC00080BD00BF0000002080B586B000AF0346A3
:100ED000FB711D4B1B68FB821B4B5B68642B03D8AB
:100EE000194B5B68DBB200E064237B75164B1B7DFE
:100EF0003B73154B5B7D7B73134B5B7B002B01D0EE
:100F0000012300E00023BB730F4B9B7B002B01D020
:100F1000012300E00023FB737B7D3B74FB8ADBB283
:100F20007B74FB8A1B0A9BB2DBB2BB740023FB748D
:100F3000FB7907F10C01082240F21220FFF7F6FDC1
:100F400000BF1837BD4680BD0000002080B586B0C8
:100F500000AF0346FB711D4B1B68FB821B4B5B689C
:100F6000642B03D8194B5B68DBB200E064237B750C
:100F7000FB793B73154B1B7D7B73FB8ADBB2BB7329
:100F8000FB8A1B0A9BB2DBB2FB737B7D3B740F4B6E
:100F90005B7B002B01D0012300E000237B740B4B13
:100FA000DB7B002B01D0012300E00023BB74002376
:100FB000FB7407F10C010123082240F22220FFF705
:100FC000B5FD00BF1837BD4680BD00BF0000002042
:100FD00080B582B000AF00237B600D4B1B68002BF7
:100FE00011D00B4B1B683A1D1146184605F0C6F987
:100FF0007B68002B07D0074B4FF080521A60BFF37D
:101000004F8FBFF36F8F00BF0837BD4680BD00BF55
:101010007803002004ED00E080B400AF094BDB68EA
:10102000084A43F08073D360074B00225A60064B96
:101030001B68054A43F00103136000BFBD4680BC36
:10104000704700BFF0ED00E0001000E080B485B014
:1010500000AF78600D4B5B68FB600D4B1B680D4A61
:10106000A2FB03239A0C7B6802FB03F3BB6000BF67
:10107000064B5A68FB68D31ABA689A42F8D800BF80
:1010800000BF1437BD4680BC704700BF001000E0B1
:101090001800002083DE1B4380B584B000AF3B46C0
:1010A00000221A605A609A60DA6002233B601123C2
:1010B0007B600023BB600323FB603B46194603486B
:1010C00002F0A8FB00BF1037BD4680BD00080140FC
:1010D00080B584B000AF3B4600221A605A609A6027
:1010E000DA6002233B6000237B600023BB603B4649
:1010F0001946034802F08EFB00BF1037BD4680BD85
:101100000008014080B584B000AFFFF7C5FF0022A2
:101110000221164802F019FD4FF4F070FFF796FF18
:10112000EFF310833B603B68FB6072B600BFFFF7D4
:10113000CFFF4620FFF78AFF02210C4802F0EEFCA9
:101140000346002B0CBF01230023FB72FB687B606E
:101150007B6883F3108800BF4FF4CD70FFF776FFF4
:10116000FB7A18461037BD4680BD00BF000801401D
:1011700080B586B000AF0346FB710023FB7535E0F8
:10118000FFF78AFFEFF31083FB60FB683B6172B6E9
:1011900000BF00220221194802F0D7FCFA79FB7D3A
:1011A00022FA03F303F00103002B0BD00220FFF718
:1011B0004DFF01220221114802F0C7FC3A20FFF73F
:1011C00045FF07E03C20FFF741FF012202210B48C9
:1011D00002F0BBFC3B69BB60BB6883F3108800BFB7
:1011E0000220FFF733FFFB7D0133FB75FB7D072BEF
:1011F000C6D900BF00BF1837BD4680BD00080140FA
:1012000080B584B000AF0023FB730023BB7333E0D1
:10121000FFF742FFEFF310837B607B68BB6072B621
:1012200000BF00220221184802F08FFC0220FFF7C5
:101230000DFFFFF74DFF0A20FFF708FF02211248BC
:1012400002F06CFC0346012B07D1BB7B012202FAA2
:1012500003F3DAB2FB7B1343FB733220FFF7F6FE96
:10126000BB683B603B6883F3108800BF0220FFF738
:10127000EDFEBB7B0133BB73BB7B072BC8D9FB7B6C
:1012800018461037BD4680BD0008014080B485B0C7
:1012900000AF78600B46FB700023FB730023BB7329
:1012A00025E0BB7B7A6813441B787B7300233B7378
:1012B00017E0FA7B7B7B5340DBB203F00103FB7248
:1012C000FB7B5B08FB73FB7A002B04D0FB7B83F07A
:1012D0007303DB43FB737B7B5B087B733B7B0133DB
:1012E0003B733B7B072BE4D9BB7B0133BB73BA7BDE
:1012F000FB789A42D5D3FB7B18461437BD4680BC99
:10130000704780B500AFFFF7FDFE034683F0010391
:10131000DBB2002B01D0002306E0CC20FFF728FF32
:101320004420FFF725FF0123184680BD90B589B002
:1013300000AF78607B68002B07D0FFF7E3FE034621
:1013400083F00103DBB2002B01D0002351E0CC205D
:10135000FFF70EFFBE20FFF70BFF0023FB770CE02B
:10136000FC7FFFF74DFF03461A4604F120033B4480
:1013700003F8142CFB7F0133FB77FB7F082BEFD99D
:10138000FFF7C0FE07F10C0308211846FFF77EFFA8
:1013900003461A463B7D9A4201D0002329E03B7B5D
:1013A0001AB27B7B1BB21B021BB21343BB83B7F980
:1013B0001C30B3F5AA6F01D100231AE0B7F91C2045
:1013C00013469B0013449A001344002B00DA0333A6
:1013D0009B10BB61BB69094A934204DBBB6943F2C2
:1013E000D402934201DD002303E07B68BA691A60EE
:1013F000012318462437BD4690BD00BF84EAFFFF95
:1014000080B58AB000AF3B4628220021184605F07F
:10141000A7FA00237B610023BB610123FB614FF42A
:1014200001533B6000237B604FF6E073BB600023F9
:10143000FB6000233B6101233B620E237B623B4642
:101440001946064801F05BFA0346002B01D000F074
:10145000EBFB00BF2837BD4680BD00BF74000020F5
:1014600080B584B000AF3B1D00221A605A609A60BC
:10147000184B194A1A60174B00229A60154B00222C
:101480001A73144B00221A75124B4FF46022DA6162
:10149000104B00225A600F4B01221A610D4800F0D8
:1014A0002DFC0346002B01D000F0BEFB04237B6023
:1014B0000123BB600723FB603B1D1946054800F074
:1014C000E1FE0346002B01D000F0AEFB00BF103759
:1014D000BD4680BD440000200024014080B500AF1F
:1014E000174B184A1A60164B04225A60144B0022FC
:1014F0009A60134B0022DA60114B4FF440221A61BC
:101500000F4B4FF440125A610D4B00221A760C4BD0
:1015100001225A760A4B00229A76094B0122DA768A
:10152000074B00221A77064B00225A77044801F035
:10153000EBF80346002B01D000F076FB00BF80BD26
:10154000740000200064004080B588B000AF07F14F
:101550000C0300221A605A609A60DA60294B9B697A
:10156000284A43F001039361264B9B6903F0010372
:10157000BB60BB68234B9B69224A43F02003936105
:10158000204B9B6903F020037B607B681D4B9B69AC
:101590001C4A43F0040393611A4B9B6903F0040354
:1015A0003B603B68184B5B68FB61FB6923F0E063C1
:1015B000FB61FB6943F00073FB61134AFB695360F5
:1015C0001023FB6003233B6107F10C0319460F480E
:1015D00002F020F90223FB6011233B6100237B61B1
:1015E0000323BB6107F10C031946084802F012F906
:1015F00001220221054802F0A8FA00BF2037BD46AB
:1016000080BD00BF00100240000001400008014002
:1016100080B58AB000AF786007F1180300221A6025
:101620005A609A60DA607B681B682B4A93424ED1FD
:101630002A4BDB69294A43F00073D361274BDB69EE
:1016400003F000737B617B69244B9B69234A43F061
:1016500004039361214B9B6903F004033B613B69E5
:101660001E4B9B691D4A43F0010393611B4B9B6911
:1016700003F00103FB60FB684FF40063BB610023D0
:10168000FB6100233B6207F118031946144802F07E
:10169000C1F84FF48053BB610223FB6103237B62DB
:1016A00007F1180319460E4802F0B4F8002205218C
:1016B000142002F068F8142002F081F800220621BC
:1016C000132002F060F8132002F079F800E000BF68
:1016D0002837BD4680BD00BF0064004000100240B6
:1016E0000008014080B588B000AF786007F11003B2
:1016F00000221A605A609A60DA607B681B68154A9B
:10170000934222D1144B9B69134A43F400739361B3
:10171000114B9B6903F40073FB60FB680E4B9B69E4
:101720000D4A43F0040393610B4B9B6903F00403E0
:10173000BB60BB6810233B6103237B6107F110038F
:101740001946064802F066F800E000BF2037BD46A3
:1017500080BD00BF0024014000100240000801408D
:1017600080B485B000AF78607B681B68B3F1804FB0
:101770000BD1084BDB69074A43F00103D361054BEA
:10178000DB6903F00103FB60FB6800BF1437BD4653
:1017900080BC70470010024080B594B000AF786004
:1017A00000237B647B681B68594A934240F0AC80FD
:1017B000584B1B68002B00F0A7808FE007F1200337
:1017C00000221A605A6007F1140300221A605A605E
:1017D0009A6007F1200307F128020021786801F0E0
:1017E0004EFB0346002B40F082803B6B002B74D1F4
:1017F0007B6B002B71D1BB6AB3F5817F6DD1BB6B65
:10180000002B6AD000233B7597F820303B7697F881
:101810002030442B13D097F82030642B0FD097F84A
:101820002030522B0BD097F82030722B07D097F82E
:101830002030582B03D097F82030782B01D101238A
:1018400000E0002387F84B3097F84B3003F001039A
:1018500087F84B3097F84B30002B0AD02D4B186887
:1018600007F1440207F11401012303F01BFC0346B6
:1018700009E0284B186807F1440207F1140100231E
:1018800003F010FC0346FB64FB6C012B16D097F8A9
:101890004B30002B12D01F4B1B6807F1440207F19D
:1018A0000801184603F07EFD1A4B186807F1440240
:1018B00007F11401012303F0F5FBF864FB6C012B25
:1018C00005D1154B1B680133134A136006E0134B17
:1018D0001B680133114A136000E000BF00217868E3
:1018E00001F0EEFB0346002B7FF468AF00E000BF81
:1018F0007B6C002B09D00A4B4FF080521A60BFF36B
:101900004F8FBFF36F8F00E000BF5037BD4680BDE3
:10191000006400400C010020EC000020F0000020DA
:1019200004ED00E080B582B000AF78607B681B6892
:10193000044A934201D1FFF74BFB00BF0837BD4675
:1019400080BD00BF0064004080B582B000AF786009
:101950007B681B68044A934201D1FFF739FB00BF43
:101960000837BD4680BD00BF0064004080B582B02E
:1019700000AF78607B681B68044A934201D1FFF78F
:1019800027FB00BF0837BD4680BD00BF0064004094
:1019900080B582B000AF78607B681B68044A9342D0
:1019A00001D1FFF715FB00BF0837BD4680BD00BF62
:1019B0000064004080B582B000AF78607B681B682F
:1019C000044A934201D1FFF703FB00BF0837BD462D
:1019D00080BD00BF0064004080B582B000AF786079
:1019E0007B681B68044A934201D1FFF7F1FA00BFFC
:1019F0000837BD4680BD00BF0064004080B500AF21
:101A0000024801F0A9FB00BF80BD00BF74000020A8
:101A100080B500AF024801F09FFB00BF80BD00BF52
:101A20007400002080B500AF024802F0F3FE00BF52
:101A300080BD00BF9C00002080B586B000AF7860FC
:101A40002D4BDB692C4A43F00103D3612A4BDB6940
:101A500003F00103FB60FB6802F05AFC7861264B3F
:101A60005B6803F4E063002B02D07B695B0000E05D
:101A70007B693B613B69214A934201D8012337E0EE
:101A80001F4B1B68B3F1804F02D11D4802F094FE3A
:101A90001B4B4FF080421A603B691A4AA2FB03239A
:101AA0009B0C013B164A5360154B00229A60144B65
:101AB00040F2E732DA60124B00221A61104B00222A
:101AC0009A610F4802F0D6FD0346002B01D0012396
:101AD0000EE0002279681C2001F055FE1C2001F068
:101AE0006EFE094A7B681360054802F013FE034648
:101AF00018461837BD4680BD001002403F420F0017
:101B00009C00002083DE1B431C00002080B582B0B7
:101B100000AF78607B681B68B3F1804F01D100F0A3
:101B2000D1F800BF0837BD4680BD000080B485B045
:101B300000AFF860B9607A60FB68064A1A60BB685B
:101B4000054A1A607B6880221A6000BF1437BD46C0
:101B500080BC7047341500208015002080B582B00D
:101B600000AF7860396000F05FF800BF0837BD460D
:101B700080BD80B594B000AF07F128032822002172
:101B8000184604F0EDFE07F1140300221A605A60B3
:101B90009A60DA601A613B1D00221A605A609A60EE
:101BA000DA600123BB624FF48033FB6200233B63A6
:101BB0000123BB6302237B644FF48033BB644FF487
:101BC000E013FB6407F12803184601F0D7FF034632
:101BD000002B01D000F028F80F237B610223BB61AA
:101BE0000023FB614FF480633B6200237B6207F1BB
:101BF00014030221184602F043FA0346002B01D0D9
:101C000000F012F802237B604FF40043FB603B1DA1
:101C1000184602F0C3FB0346002B01D000F004F885
:101C200000BF5037BD4680BD80B400AF72B600BF64
:101C300000BFFDE780B400AF00BFBD4680BC704769
:101C4000FFF7F8FF0B480C490C4A002302E0D45878
:101C5000C4500433C4188C42F9D3094A094C0023F8
:101C600001E013600432A242FBD304F081FEFEF7D0
:101C70006FFA70470000002028000020746A0008F6
:101C80002800002098180020FEE7000080B500AF73
:101C9000084B1B68074A43F010031360032001F050
:101CA00067FD0F20FFF7C8FE00F006F80023184676
:101CB00080BD00BF0020024080B400AF00BFBD4621
:101CC00080BC704780B400AF054B1B781A46054BAB
:101CD0001B681344034A136000BFBD4680BC7047B5
:101CE000200000208017002080B400AF024B1B684A
:101CF0001846BD4680BC70478017002080B586B06E
:101D000000AF78600023FB7500233B610023BB60BC
:101D10000023FB607B68002B01D10123BEE07B68C0
:101D20009B68002B7B689B6A002B09D17B68002293
:101D3000DA627B68002283F824207868FFF7D2FCFF
:101D4000786800F0F1FB0346FB757B689B6A03F043
:101D50001003002B40F09980FB7D002B40F0958014
:101D60007B689B6A23F4885323F0020343F002024A
:101D70007B689A627B685A687B68DB691A437B6878
:101D80001B7B5B001343BA681343BB607B689B6893
:101D9000B3F5807F03D07B689B68012B02D14FF4A1
:101DA000807300E000233A6913433B617B681B7D2D
:101DB000012B19D17B681B7B002B09D17B689B69A8
:101DC000013B5A033B69134343F400633B610BE05F
:101DD0007B689B6A43F020027B689A627B68DB6ABF
:101DE00043F001027B68DA627B681B685B6823F45E
:101DF00069417B681B683A690A435A607B681B68C3
:101E00009A68284B13407A681268B9680B4393604C
:101E10007B689B68B3F5807F03D07B689B68012B50
:101E200004D17B681B69013B1B05FB607B681B6859
:101E3000DB6A23F470017B681B68FA680A43DA6284
:101E40007B681B689A68184B1340BA689A420BD19A
:101E50007B680022DA627B689B6A23F0030343F00D
:101E600001027B689A6218E07B689B6A23F0120388
:101E700043F010027B689A627B68DB6A43F00102E0
:101E80007B68DA620123FB7507E07B689B6A43F09D
:101E900010027B689A620123FB75FB7D1846183798
:101EA000BD4680BDFDF7E1FFFE0E1FFF80B584B08B
:101EB00000AF78600023FB737B6893F82430012B1C
:101EC00001D1022398E07B68012283F824207868FE
:101ED00000F0D0FA0346FB73FB7B002B40F08780B9
:101EE0007B689B6A23F4407323F0010343F4807200
:101EF0007B689A627B681B68414A934205D1414BDB
:101F00005B6803F47023002B15D17B689B6A23F474
:101F100080127B689A627B681B685B6803F480634D
:101F2000002B26D07B689B6A23F4405343F48052F5
:101F30007B689A621DE07B689B6A43F480127B6831
:101F40009A627B681B682F4A934204D07B681B68A7
:101F50002B4A93420DD12B4B5B6803F48063002B1B
:101F600007D07B689B6A23F4405343F480527B681C
:101F70009A627B689B6A03F48053002B06D07B68CF
:101F8000DB6A23F006027B68DA6202E07B680022EB
:101F9000DA627B68002283F824207B681B686FF07C
:101FA00002021A607B681B689B6803F46023B3F528
:101FB000602F13D17B681B68114A934205D1114BE6
:101FC0005B6803F47023002B08D17B681B689A6858
:101FD0007B681B6842F4A0029A600CE07B681B6877
:101FE0009A687B681B6842F480129A6003E07B6801
:101FF000002283F82420FB7B18461037BD4680BDA5
:10200000002801400024014080B584B000AF786012
:102010000023FB737B6893F82430012B01D102234A
:102020001AE07B68012283F82420786800F07CFAAB
:102030000346FB73FB7B002B09D17B689B6A23F46F
:10204000885323F0010343F001027B689A627B68A6
:10205000002283F82420FB7B18461037BD4680BD44
:1020600090B587B000AF7860396000237B610023B2
:10207000FB6000233B61FFF737FE78617B681B68DC
:102080009B6803F48073002B0BD07B689B6A43F042
:1020900020027B689A627B68002283F82420012357
:1020A000D3E07B681B685B6803F48073002B31D13D
:1020B0007B681B68DB6A03F47003002B2AD121E0E4
:1020C0003B68B3F1FF3F1DD03B68002B07D0FFF703
:1020D0000BFE02467B69D31A3A689A4212D27B6899
:1020E0001B681B6803F00203002B0BD17B689B6A03
:1020F00043F004027B689A627B68002283F8242004
:102100000323A2E07B681B681B6803F00203002B1B
:10211000D6D070E04F4B1C68022002F0F5F9034660
:10212000B4FBF3F27B681B6819694B4B0B40002B27
:1021300018D17B681B68D968484B0B40002B11D124
:102140007B681B681969464B0B40002B08D17B68E4
:102150001B68D968434B0B40002B01D1142320E0AE
:1021600029231EE07B681B6819693D4B0B40002B3F
:1021700006D17B681B68D9683A4B0B40002B0DD009
:102180007B681B681969384B0B40002B08D17B68B2
:102190001B68D968344B0B40002B01D1542300E05D
:1021A000FC2302FB03F33B6121E03B68B3F1FF3FFB
:1021B0001AD03B68002B07D0FFF796FD02467B69DB
:1021C000D31A3A689A420FD2FB683A699A420BD9FD
:1021D0007B689B6A43F004027B689A627B680022FA
:1021E00083F82420032330E0FB680133FB60FB68A5
:1021F0003A699A42D9D87B681B686FF012021A605C
:102200007B689B6A43F400727B689A627B681B68F8
:102210009B6803F46023B3F5602F15D17B681B7BAB
:10222000002B11D17B689B6A23F480727B689A62D1
:102230007B689B6A03F48053002B05D17B689B6A03
:1022400043F001027B689A62002318461C37BD46A2
:1022500090BD00BF18000020244992242449920018
:1022600092244912922449004992240080B483B0F8
:1022700000AF78607B681B68DB6C18460C37BD4686
:1022800080BC704780B485B000AF786039600023AF
:10229000FB730023BB607B6893F82430012B01D1D2
:1022A0000223DCE07B68012283F824203B685B6822
:1022B000062B1CD87B681B68596B3B685A68134611
:1022C0009B001344053B1F2202FA03F3DB43194032
:1022D0003B6818683B685A6813469B001344053BEB
:1022E00000FA03F27B681B680A435A633CE03B68D0
:1022F0005B680C2B1CD87B681B68196B3B685A68A1
:1023000013469B001344233B1F2202FA03F3DB43D3
:1023100019403B6818683B685A6813469B00134491
:10232000233B00FA03F27B681B680A431A631BE035
:102330007B681B68D96A3B685A6813469B00134444
:10234000413B1F2202FA03F3DB4319403B68186844
:102350003B685A6813469B001344413B00FA03F262
:102360007B681B680A43DA623B681B68092B1CD92F
:102370007B681B68D9683B681A6813465B00134486
:102380001E3B072202FA03F3DB4319403B689868BF
:102390003B681A6813465B0013441E3B00FA03F2C5
:1023A0007B681B680A43DA6019E07B681B6819695F
:1023B0003B681A6813465B001344072202FA03F3D2
:1023C000DB4319403B6898683B681A6813465B001A
:1023D000134400FA03F27B681B680A431A613B68E6
:1023E0001B68102B03D03B681B68112B32D17B6814
:1023F0001B681D4A934225D17B681B689B6803F4C8
:102400000003002B26D17B681B689A687B681B68D9
:1024100042F400029A603B681B68102B1AD1134BE0
:102420001B68134AA2FB03239A0C13469B00134418
:102430005B00BB6002E0BB68013BBB60BB68002B7C
:10244000F9D107E07B689B6A43F020027B689A62BF
:102450000123FB737B68002283F82420FB7B184652
:102460001437BD4680BC704700240140180000208E
:1024700083DE1B4380B584B000AF78600023FB602F
:102480000023BB607B681B689B6803F00103012B82
:1024900040D07B681B689A687B681B6842F0010229
:1024A0009A601F4B1B681F4AA2FB03239B0CBB6057
:1024B00002E0BB68013BBB60BB68002BF9D1FFF7B2
:1024C00013FCF8601FE0FFF70FFC0246FB68D31A0D
:1024D000022B18D97B681B689B6803F00103012B52
:1024E00011D07B689B6A43F010027B689A627B681C
:1024F000DB6A43F001027B68DA627B68002283F8C2
:102500002420012307E07B681B689B6803F001031C
:10251000012BD8D1002318461037BD4680BD00BF1F
:102520001800002083DE1B4380B584B000AF7860C4
:102530000023FB607B681B689B6803F00103012B91
:102540002ED17B681B689A687B681B6822F00102A9
:102550009A60FFF7C9FBF8601BE0FFF7C5FB024676
:10256000FB68D31A022B14D97B681B689B6803F0A5
:102570000103012B0DD17B689B6A43F010027B683D
:102580009A627B68DB6A43F001027B68DA620123AE
:1025900007E07B681B689B6803F00103012BDCD01C
:1025A000002318461037BD4680BD000090B587B0A7
:1025B00000AF78600023FB750023FB607B6893F815
:1025C0002430012B01D1022397E07B68012283F89C
:1025D00024207868FFF7A8FF0346FB757868FFF7AB
:1025E00049FF0346FB75FB7D002B40F081807B6833
:1025F0009B6A23F4885323F0020343F002027B68B2
:102600009A62404B1C68022001F07EFF0346B4FB37
:10261000F3F35B00FB6002E0FB68013BFB60FB68DF
:10262000002BF9D17B681B689A687B681B6842F0B5
:1026300008029A60FFF758FB38611BE0FFF754FB74
:1026400002463B69D31A0A2B14D97B681B689B6826
:1026500003F00803002B0DD07B689B6A23F0120364
:1026600043F010027B689A627B68002283F8242082
:10267000012342E07B681B689B6803F00803002B82
:10268000DCD17B681B689A687B681B6842F0040297
:102690009A60FFF729FB38611BE0FFF725FB024634
:1026A0003B69D31A0A2B14D97B681B689B6803F01B
:1026B0000403002B0DD07B689B6A23F0120343F0C8
:1026C00010027B689A627B68002283F82420012331
:1026D00013E07B681B689B6803F00403002BDCD1CC
:1026E0007B689B6A23F0030343F001027B689A62D4
:1026F0007B68002283F82420FB7D18461C37BD46EA
:1027000090BD00BF1800002080B584B000AF786095
:102710007B68002B01D10123EDE07B6893F820302A
:10272000DBB2002B02D17868FEF772FF7B681B6872
:102730001A687B681B6842F001021A60FFF7D4FA3E
:10274000F86012E0FFF7D0FA0246FB68D31A0A2BB2
:102750000BD97B685B6A43F400327B685A627B6802
:10276000052283F820200123C5E07B681B685B6895
:1027700003F00103002BE5D07B681B681A687B68B7
:102780001B6822F002021A60FFF7AEFAF86012E04E
:10279000FFF7AAFA0246FB68D31A0A2B0BD97B680B
:1027A0005B6A43F400327B685A627B68052283F8D7
:1027B000202001239FE07B681B685B6803F0020315
:1027C000002BE5D17B681B7E012B08D17B681B6841
:1027D0001A687B681B6842F080021A6007E07B6819
:1027E0001B681A687B681B6822F080021A607B688D
:1027F0005B7E012B08D17B681B681A687B681B68AD
:1028000042F040021A6007E07B681B681A687B6828
:102810001B6822F040021A607B689B7E012B08D166
:102820007B681B681A687B681B6842F020021A608C
:1028300007E07B681B681A687B681B6822F020022F
:102840001A607B68DB7E012B08D17B681B681A68E5
:102850007B681B6822F010021A6007E07B681B6827
:102860001A687B681B6842F010021A607B681B7F45
:10287000012B08D17B681B681A687B681B6842F0D3
:1028800008021A6007E07B681B681A687B681B688F
:1028900022F008021A607B685B7F012B08D17B68FD
:1028A0001B681A687B681B6842F004021A6007E024
:1028B0007B681B681A687B681B6822F004021A6038
:1028C0007B689A687B68DB681A437B681B691A43DC
:1028D0007B685B6942EA03017B685B685A1E7B6820
:1028E0001B680A43DA617B6800225A627B68012216
:1028F00083F82020002318461037BD4680BD80B4E1
:1029000087B000AF786039607B681B687B617B684B
:1029100093F82030FB74FB7C012B03D0FB7C022B53
:1029200040F0AA807B69D3F8003243F001027B6952
:10293000C3F800223B685B6903F01F03012202FA1F
:1029400003F3FB607B69D3F81C22FB68DB431A406E
:102950007B69C3F81C223B68DB69002B23D17B69B0
:10296000D3F80C22FB68DB431A407B69C3F80C22C6
:102970003B68DB6819043B685B689BB23A68526944
:1029800019437B69483243F832103B689B6819044D
:102990003B681B689AB23B685B690A4379694833B4
:1029A000DB000B445A603B68DB69012B22D17B6959
:1029B000D3F80C22FB681A437B69C3F80C223B68EE
:1029C0001B6819043B685B689BB23A6852691943FB
:1029D0007B69483243F832103B689B6819043B68B6
:1029E000DB689AB23B685B690A4379694833DB006C
:1029F0000B445A603B689B69002B09D17B69D3F873
:102A00000422FB68DB431A407B69C3F8042207E019
:102A10007B69D3F80422FB681A437B69C3F804225C
:102A20003B681B69002B09D17B69D3F81422FB6832
:102A3000DB431A407B69C3F8142207E07B69D3F8B3
:102A40001422FB681A437B69C3F814223B681B6A93
:102A5000012B07D17B69D3F81C22FB681A437B69E1
:102A6000C3F81C227B69D3F8003223F001027B6992
:102A7000C3F80022002306E07B685B6A43F48022EF
:102A80007B685A62012318461C37BD4680BC7047DC
:102A900080B584B000AF78607B6893F82030DBB2FB
:102AA000012B2ED17B68022283F820207B681B68D3
:102AB0001A687B681B6822F001021A60FFF714F99C
:102AC000F86012E0FFF710F90246FB68D31A0A2BF0
:102AD0000BD97B685B6A43F400327B685A627B687F
:102AE000052283F82020012312E07B681B685B68C5
:102AF00003F00103002BE5D17B6800225A6200231A
:102B000006E07B685B6A43F400227B685A6201231B
:102B100018461037BD4680BD80B584B000AF7860E0
:102B20007B6893F82030DBB2022B33D17B681B68C3
:102B30001A687B681B6842F001021A60FFF7D4F83C
:102B4000F86012E0FFF7D0F80246FB68D31A0A2BB0
:102B50000BD97B685B6A43F400327B685A627B68FE
:102B6000052283F8202001231BE07B681B685B683B
:102B700003F00103002BE5D07B681B681A687B68B3
:102B80001B6822F002021A607B68012283F8202071
:102B9000002306E07B685B6A43F480127B685A621C
:102BA000012318461037BD4680BD80B489B000AF00
:102BB000F860B9607A603B60FB6893F82030FB777F
:102BC000FB681B689B68BB61FB7F012B03D0FB7F0D
:102BD000022B40F0AD80BB6903F08063002B0AD16B
:102BE000BB6903F00063002B05D1BB6903F0805380
:102BF000002B00F09580BB691B0E03F003037B6183
:102C000001227B699A403B681A60BB689B68002B75
:102C10000DD1BB681B685A05BB68DB68F968096899
:102C20001A437B6918331B010B441A600FE0BB6821
:102C30005B68DA00BB689B681A43BB68DB68F968AD
:102C400009681A437B6918331B010B441A60FB683F
:102C50001968BB681A697B6918331B010B4404337C
:102C60001A60BB681B7D012B11D1FB681A687B6958
:102C700018331B01134404331B68FA68116843F4CA
:102C800080727B6918331B010B4404331A607B6824
:102C900007331B781A067B6806331B781B041A431C
:102CA0007B6805331B781B0213437A680432127861
:102CB0001046FA68116843EA00027B691B010B4465
:102CC00003F5C6731A607B6803331B781A067B68AA
:102CD00002331B781B041A437B6801331B781B02E9
:102CE00013437A6812781046FA68116843EA0002C2
:102CF0007B691B010B4403F5C4731A60FB681A68F7
:102D00007B6918331B0113441B68FA68116843F090
:102D100001027B6918331B010B441A6000230EE08B
:102D2000FB685B6A43F40012FB685A62012306E009
:102D3000FB685B6A43F48022FB685A6201231846F1
:102D40002437BD4680BC704780B485B000AF786042
:102D500039607B6893F82030FB73FB7B012B02D03A
:102D6000FB7B022B28D13B6803F00103002B07D02B
:102D70007B681B689A687B681B6842F080029A60D7
:102D80003B6803F00203002B07D07B681B689A683E
:102D90007B681B6842F400429A603B6803F00403BE
:102DA000002B07D07B681B689A687B681B6842F41D
:102DB00000029A60002306E07B685B6A43F480228D
:102DC0007B685A62012318461437BD4680BC7047A1
:102DD00080B485B000AF78600023FB607B6893F817
:102DE0002030FB72FB7A012B02D0FB7A022B1DD123
:102DF0007B681B689B6803F08063002B02D0FB6834
:102E00000133FB607B681B689B6803F00063002B49
:102E100002D0FB680133FB607B681B689B6803F092
:102E20008053002B02D0FB680133FB60FB6818461F
:102E30001437BD4680BC704780B485B000AF786061
:102E400039600023FB607B6893F82030FB72FB7ACB
:102E5000012B02D0FB7A022B0BD17B681B689A688E
:102E60003B689B061A403B689B069A4201D00123AF
:102E7000FB60FB6818461437BD4680BC704780B4C1
:102E800087B000AFF860B9607A603B60FB6893F888
:102E90002030FB75FB7D012B03D0FB7D022B40F026
:102EA0000381BB68002B0ED1FB681B68DB6803F055
:102EB0000303002B16D1FB685B6A43F40012FB6826
:102EC0005A620123F7E0FB681B681B6903F00303E8
:102ED000002B07D1FB685B6A43F40012FB685A625F
:102EE0000123E8E0FB681A68BB681B331B0113442D
:102EF0001B6803F004027B689A607B689B68002B68
:102F00000CD1FB681A68BB681B331B0113441B6898
:102F10005B0DC3F30A027B681A600BE0FB681A685A
:102F2000BB681B331B0113441B68DB0823F06042A2
:102F30007B685A60FB681A68BB681B331B0113442B
:102F40001B6803F002027B68DA60FB681A68BB68E2
:102F50001B331B01134404331B6803F00803002BCD
:102F600003D07B6808221A610BE0FB681A68BB6813
:102F70001B331B01134404331B6803F00F027B68EF
:102F80001A61FB681A68BB681B331B0113440433C6
:102F90001B681B0ADAB27B689A61FB681A68BB6817
:102FA0001B331B01134404331B681B0C9AB27B6850
:102FB0005A61FB681A68BB681B01134403F5DC7394
:102FC0001B68DAB23B681A70FB681A68BB681B01A1
:102FD000134403F5DC731B681A0A3B680133D2B251
:102FE0001A70FB681A68BB681B01134403F5DC7395
:102FF0001B681A0C3B680233D2B21A70FB681A685D
:10300000BB681B01134403F5DC731B681A0E3B6895
:103010000333D2B21A70FB681A68BB681B011344F1
:1030200003F5DE731A683B680433D2B21A70FB688A
:103030001A68BB681B01134403F5DE731B681A0A88
:103040003B680533D2B21A70FB681A68BB681B0173
:10305000134403F5DE731B681A0C3B680633D2B2C7
:103060001A70FB681A68BB681B01134403F5DE7312
:103070001B681A0E3B680733D2B21A70BB68002B6C
:1030800008D1FB681B68DA68FB681B6842F0200205
:10309000DA6007E0FB681B681A69FB681B6842F08E
:1030A00020021A61002306E0FB685B6A43F4802279
:1030B000FB685A62012318461C37BD4680BC704726
:1030C00080B485B000AF786039600023FB607B6816
:1030D00093F82030FB72FB7A012B02D0FB7A022B93
:1030E0000FD13B68002B06D17B681B68DB6803F0BF
:1030F0000303FB6005E07B681B681B6903F00303A7
:10310000FB60FB6818461437BD4680BC704780B42E
:1031100085B000AF786039607B6893F82030FB732E
:10312000FB7B012B02D0FB7B022B09D17B681B6848
:1031300059697B681B683A680A435A61002306E0B4
:103140007B685B6A43F480227B685A6201231846DD
:103150001437BD4680BC704780B58AB000AF786038
:1031600000237B627B681B685B693B627B681B6832
:103170005B68FB617B681B689B68BB617B681B6845
:10318000DB687B617B681B681B693B617B681B6834
:103190009B69FB603B6A03F00103002B7CD0BB6999
:1031A00003F00103002B23D07B681B6801229A6087
:1031B000BB6903F00203002B03D07868FEF7B2FB73
:1031C00016E0BB6903F00403002B04D07B6A43F4D0
:1031D00000637B620CE0BB6903F00803002B04D0A2
:1031E0007B6A43F480537B6202E07868FEF7D0FB91
:1031F000BB6903F48073002B24D07B681B684FF4F9
:1032000080729A60BB6903F40073002B03D0786866
:10321000FEF79AFB16E0BB6903F48063002B04D031
:103220007B6A43F400537B620CE0BB6903F40063E8
:10323000002B04D07B6A43F480437B6202E0786811
:10324000FEF7B8FBBB6903F48033002B24D07B6806
:103250001B684FF480329A60BB6903F40033002B83
:1032600003D07868FEF782FB16E0BB6903F4802385
:10327000002B04D07B6A43F400437B620CE0BB6903
:1032800003F40023002B04D07B6A43F480337B6279
:1032900002E07868FEF7A0FB3B6A03F00803002B0E
:1032A0000CD07B6903F01003002B07D07B6A43F43A
:1032B00000737B627B681B681022DA603B6A03F054
:1032C0000403002B0BD07B6903F00803002B06D00E
:1032D0007B681B680822DA60786800F0F4F83B6AC3
:1032E00003F00203002B09D07B681B68DB6803F046
:1032F0000303002B02D07868FEF74EFA3B6A03F016
:103300004003002B0CD03B6903F01003002B07D0C7
:103310007B6A43F480637B627B681B6810221A61BE
:103320003B6A03F02003002B0BD03B6903F008033A
:10333000002B06D07B681B6808221A61786800F0B1
:10334000D4F83B6A03F01003002B09D07B681B689C
:103350001B6903F00303002B02D0786800F0BCF86F
:103360003B6A03F40033002B0BD0FB6903F010031E
:10337000002B06D07B681B6810225A60786800F02A
:10338000BDF83B6A03F48033002B0BD0FB6903F0DC
:103390000803002B06D07B681B6808225A607868F7
:1033A00000F0B5F83B6A03F40043002B7BD0FB69C7
:1033B00003F00403002B72D03B6A03F48073002BEC
:1033C00008D0FB6803F00103002B03D07B6A43F0B5
:1033D00001037B623B6A03F40073002B08D0FB6897
:1033E00003F00203002B03D07B6A43F002037B62ED
:1033F0003B6A03F48063002B08D0FB6803F00403EE
:10340000002B03D07B6A43F004037B623B6A03F426
:103410000063002B43D0FB6803F07003002B3ED009
:10342000FB6803F07003602B2BD0602B2ED8502B41
:1034300022D0502B2AD8402B19D0402B26D8302B05
:1034400010D0302B22D8102B02D0202B05D01DE01D
:103450007B6A43F008037B6219E07B6A43F0100348
:103460007B6214E07B6A43F020037B620FE07B6A9F
:1034700043F040037B620AE07B6A43F080037B6297
:1034800005E07B6A43F480737B6200E000BF7B68E9
:103490001B689A697B681B6822F070029A617B68DE
:1034A0001B6804225A607B6A002B08D07B685A6A2A
:1034B0007B6A1A437B685A62786800F031F800BF73
:1034C0002837BD4680BD80B483B000AF786000BFB0
:1034D0000C37BD4680BC704780B483B000AF7860C5
:1034E00000BF0C37BD4680BC704780B483B000AFCE
:1034F000786000BF0C37BD4680BC704780B483B095
:1035000000AF786000BF0C37BD4680BC704780B408
:1035100083B000AF786000BF0C37BD4680BC7047F9
:1035200080B483B000AF786000BF0C37BD4680BC6C
:10353000704780B485B000AF78607B6893F8203026
:10354000FB73FB7B012B02D0FB7B022B12D17B6830
:103550001B685B6803F00203002B02D00423FB739B
:1035600008E07B681B681B6803F00203002B01D096
:103570000323FB73FB7B18461437BD4680BC7047A2
:1035800080B483B000AF78607B685B6A18460C3704
:10359000BD4680BC7047000080B485B000AF786045
:1035A0007B6803F00703FB600C4BDB68BB60BA6809
:1035B0004FF6FF031340BB60FB681A02BB6813435E
:1035C00043F0BF6343F40033BB60044ABB68D3607D
:1035D00000BF1437BD4680BC704700BF00ED00E05F
:1035E00080B400AF044BDB681B0A03F007031846E6
:1035F000BD4680BC704700BF00ED00E080B483B0E2
:1036000000AF0346FB7197F90730002B0BDBFB790A
:1036100003F01F02064997F907305B09012000FA01
:1036200002F241F8232000BF0C37BD4680BC704732
:1036300000E100E080B483B000AF0346FB7197F96E
:103640000730002B12DBFB7903F01F020A4997F9C0
:1036500007305B09012000FA02F2203341F82320F1
:10366000BFF34F8F00BFBFF36F8F00BF00BF0C379A
:10367000BD4680BC704700BF00E100E080B483B06D
:1036800000AF0346FB7197F90730002B0CDBFB7989
:1036900003F01F02074997F907305B09012000FA80
:1036A00002F2603341F8232000BF0C37BD4680BCD6
:1036B000704700BF00E100E080B483B000AF034674
:1036C0003960FB7197F90730002B0ADB3B68DAB2EF
:1036D0000C4997F907301201D2B20B4483F800234A
:1036E0000AE03B68DAB20849FB7903F00F03043BB8
:1036F0001201D2B20B441A7600BF0C37BD4680BC13
:10370000704700BF00E100E000ED00E080B489B048
:1037100000AFF860B9607A60FB6803F00703FB61F3
:10372000FB69C3F10703042B28BF0423BB61FB69BA
:103730000433062B02D9FB69033B00E000237B61C5
:103740004FF0FF32BB6902FA03F3DA43BB681A4059
:103750007B699A404FF0FF317B6901FA03F3D9434B
:103760007B680B40134318462437BD4680BC704726
:1037700080B582B000AF78607868FFF70DFF00BFBA
:103780000837BD4680BD80B586B000AF0346B9603E
:103790007A60FB7300237B61FFF722FF78617A6810
:1037A000B9687869FFF7B2FF024697F90F30114602
:1037B0001846FFF781FF00BF1837BD4680BD80B5B2
:1037C00082B000AF0346FB7197F907301846FFF748
:1037D00015FF00BF0837BD4680BD80B582B000AF81
:1037E0000346FB7197F907301846FFF723FF00BF28
:1037F0000837BD4680BD80B582B000AF0346FB717F
:1038000097F907301846FFF739FF00BF0837BD4664
:1038100080BD000080B48BB000AF786039600023B9
:103820007B6200233B6269E101227B6A02FA03F3B7
:10383000FB613B681B68FA691340BB61BA69FB69AD
:103840009A4240F058813B685B689A4A93425ED046
:10385000984A934275D8984A934258D0964A9342D0
:103860006FD8964A934252D0944A934269D8944A68
:1038700093424CD0924A934263D8924A934246D0A4
:10388000904A93425DD8122B2AD8122B59D801A204
:1038900052F823F00F390008E9380008FB38000817
:1038A0003D3900084339000843390008433900080E
:1038B00043390008433900084339000843390008F8
:1038C00043390008433900084339000843390008E8
:1038D0004339000843390008F13800080539000869
:1038E000794A934213D02CE03B68DB683B6229E0C5
:1038F0003B68DB6804333B6224E03B68DB680833E9
:103900003B621FE03B68DB680C333B621AE03B68BC
:103910009B68002B02D104233B6213E03B689B6849
:10392000012B05D108233B627B68FA691A6109E023
:1039300008233B627B68FA695A6103E000233B621B
:1039400000E000BFBB69FF2B01D87B6801E07B680A
:1039500004337B61BB69FF2B02D87B6A9B0002E0CA
:103960007B6A083B9B003B617B691A680F213B69BE
:1039700001FA03F3DB431A40396A3B6901FA03F3A6
:103980001A437B691A603B685B6803F08053002B25
:1039900000F0B1804D4B9B694C4A43F001039361A9
:1039A0004A4B9B6903F00103BB60BB68484A7B6AD2
:1039B0009B08023352F82330FB607B6A03F0030359
:1039C0009B000F2202FA03F3DB43FA681340FB600B
:1039D0007B68404A934213D07B683F4A93420DD0A4
:1039E0007B683E4A934207D07B683D4A934201D1AF
:1039F000032306E0042304E0022302E0012300E0A5
:103A000000237A6A02F0030292009340FA6813439B
:103A1000FB602F497B6A9B080233FA6841F8232038
:103A20003B685B6803F48013002B06D02D4B9A682B
:103A30002C49BB6913438B6006E02A4B9A68BB692B
:103A4000DB43284913408B603B685B6803F4001339
:103A5000002B06D0234BDA682249BB691343CB60A5
:103A600006E0204BDA68BB69DB431E491340CB609C
:103A70003B685B6803F40033002B06D0194B5A688F
:103A80001849BB6913434B6006E0164B5A68BB6983
:103A9000DB43144913404B603B685B6803F480339D
:103AA000002B21D00F4B1A680E49BB6913430B60E2
:103AB00021E000BF00003210000031100000221091
:103AC0000000211000001210000011100010024030
:103AD0000000014000080140000C014000100140BE
:103AE00000140140000401400B4B1A68BB69DB4322
:103AF000094913400B607B6A01337B623B681A689B
:103B00007B6A22FA03F3002B7FF48EAE00BF00BF66
:103B10002C37BD4680BC70470004014080B485B09E
:103B200000AF78600B467B807B689A687B88134087
:103B3000002B02D00123FB7301E00023FB73FB7B0E
:103B400018461437BD4680BC704780B483B000AFC0
:103B500078600B467B8013467B707B78002B03D00C
:103B60007A887B681A6103E07B881A047B681A6193
:103B700000BF0C37BD4680BC7047000080B586B0E2
:103B800000AF78607B68002B01D1012372E27B6873
:103B90001B6803F00103002B00F08780924B5B68E9
:103BA00003F00C03042B0CD08F4B5B6803F00C0369
:103BB000082B12D18C4B5B6803F48033B3F5803F44
:103BC0000BD1894B1B6803F40033002B6CD07B684E
:103BD0005B68002B68D101234CE27B685B68B3F51E
:103BE000803F06D1804B1B687F4A43F480331360CB
:103BF0002EE07B685B68002B0CD17B4B1B687A4AFC
:103C000023F480331360784B1B68774A23F48023B6
:103C100013601DE07B685B68B3F5A02F0CD1724B7D
:103C20001B68714A43F4802313606F4B1B686E4A14
:103C300043F4803313600BE06B4B1B686A4A23F438
:103C400080331360684B1B68674A23F4802313603A
:103C50007B685B68002B13D0FEF746F8386108E0FC
:103C6000FEF742F802463B69D31A642B01D90323BD
:103C700000E25D4B1B6803F40033002BF0D014E02E
:103C8000FEF732F8386108E0FEF72EF802463B698D
:103C9000D31A642B01D90323ECE1534B1B6803F4C3
:103CA0000033002BF0D100E000BF7B681B6803F0FD
:103CB0000203002B63D04C4B5B6803F00C03002B1A
:103CC0000BD0494B5B6803F00C03082B1CD1464B0F
:103CD0005B6803F48033002B16D1434B1B6803F061
:103CE0000203002B05D07B681B69012B01D0012347
:103CF000C0E13D4B1B6823F0F8027B685B69DB0089
:103D0000394913430B603AE07B681B69002B20D0D4
:103D1000364B01221A60FDF7E7FF386108E0FDF736
:103D2000E3FF02463B69D31A022B01D90323A1E129
:103D30002D4B1B6803F00203002BF0D02A4B1B68AD
:103D400023F0F8027B685B69DB00274913430B60B3
:103D500015E0264B00221A60FDF7C6FF386108E027
:103D6000FDF7C2FF02463B69D31A022B01D9032398
:103D700080E11D4B1B6803F00203002BF0D17B6830
:103D80001B6803F00803002B3AD07B689B69002B6B
:103D900019D0174B01221A60FDF7A6FF386108E021
:103DA000FDF7A2FF02463B69D31A022B01D9032378
:103DB00060E10D4B5B6A03F00203002BF0D00120A1
:103DC00000F0CEFA1CE00A4B00221A60FDF78CFFCF
:103DD00038610FE0FDF788FF02463B69D31A022BDA
:103DE00008D9032346E100BF001002400000424210
:103DF00080044242924B5B6A03F00203002BE9D13C
:103E00007B681B6803F00403002B00F0A6800023EE
:103E1000FB758B4BDB6903F08053002B0DD1884B76
:103E2000DB69874A43F08053D361854BDB6903F03C
:103E30008053BB60BB680123FB75824B1B6803F496
:103E40008073002B18D17F4B1B687E4A43F480732C
:103E50001360FDF749FF386108E0FDF745FF0246B2
:103E60003B69D31A642B01D9032303E1754B1B680B
:103E700003F48073002BF0D07B68DB68012B06D144
:103E80006F4B1B6A6E4A43F0010313622DE07B689F
:103E9000DB68002B0CD16A4B1B6A694A23F00103D3
:103EA0001362674B1B6A664A23F0040313621CE02B
:103EB0007B68DB68052B0CD1614B1B6A604A43F0C1
:103EC000040313625E4B1B6A5D4A43F001031362F5
:103ED0000BE05B4B1B6A5A4A23F001031362584BF9
:103EE0001B6A574A23F0040313627B68DB68002BCC
:103EF00015D0FDF7F9FE38610AE0FDF7F5FE024640
:103F00003B69D31A41F28832934201D90323B1E0CD
:103F10004B4B1B6A03F00203002BEED014E0FDF7BD
:103F2000E3FE38610AE0FDF7DFFE02463B69D31A83
:103F300041F28832934201D903239BE0404B1B6A34
:103F400003F00203002BEED1FB7D012B05D13C4B8E
:103F5000DB693B4A23F08053D3617B68DB69002B2C
:103F600000F08780364B5B6803F00C03082B61D0B0
:103F70007B68DB69022B46D1334B00221A60FDF7C8
:103F8000B3FE386108E0FDF7AFFE02463B69D31A85
:103F9000022B01D903236DE0294B1B6803F000734A
:103FA000002BF0D17B681B6AB3F5803F08D1244B0E
:103FB0005B6823F400327B689B68214913434B60A4
:103FC0001F4B5B6823F474127B68196A7B685B6A19
:103FD0000B431B4913434B601B4B01221A60FDF737
:103FE00083FE386108E0FDF77FFE02463B69D31A85
:103FF000022B01D903233DE0114B1B6803F0007332
:10400000002BF0D035E0104B00221A60FDF76CFE5B
:10401000386108E0FDF768FE02463B69D31A022BBF
:1040200001D9032326E0064B1B6803F00073002B25
:10403000F0D11EE07B68DB69012B07D1012319E079
:104040000010024000700040600042420B4B5B6871
:10405000FB60FB6803F480327B681B6A9A4206D1DE
:10406000FB6803F470127B685B6A9A4201D00123FB
:1040700000E0002318461837BD4680BD00100240FE
:1040800080B584B000AF786039607B68002B01D1C7
:104090000123D0E06A4B1B6803F007033A689A4299
:1040A00010D9674B1B6823F0070265493B6813432F
:1040B0000B60634B1B6803F007033A689A4201D018
:1040C0000123B8E07B681B6803F00203002B20D0BB
:1040D0007B681B6803F00403002B05D0594B5B6819
:1040E000584A43F4E06353607B681B6803F008039D
:1040F000002B05D0534B5B68524A43F46053536026
:10410000504B5B6823F0F0027B689B684D4913437A
:104110004B607B681B6803F00103002B40D07B6879
:104120005B68012B07D1474B1B6803F40033002B5E
:1041300015D101237FE07B685B68022B07D1414BDF
:104140001B6803F00073002B09D1012373E03D4B82
:104150001B6803F00203002B01D101236BE0394BF4
:104160005B6823F003027B685B68364913434B604E
:10417000FDF7BAFDF8600AE0FDF7B6FD0246FB6800
:10418000D31A41F28832934201D9032353E02D4BD5
:104190005B6803F00C027B685B689B009A42EBD182
:1041A000274B1B6803F007033A689A4210D2244B4E
:1041B0001B6823F0070222493B6813430B60204B26
:1041C0001B6803F007033A689A4201D0012332E0EA
:1041D0007B681B6803F00403002B08D0194B5B6855
:1041E00023F4E0627B68DB68164913434B607B680D
:1041F0001B6803F00803002B09D0124B5B6823F403
:1042000060527B681B69DB000E4913434B6000F072
:1042100021F802460B4B5B681B0903F00F030A49A8
:10422000CB5C22FA03F3094A1360094B1B6818465A
:10423000FDF702FC002318461037BD4680BD00BFC5
:1042400000200240001002402C6A000818000020E4
:104250001C00002080B487B000AF0023FB60002367
:10426000BB6000237B6100237B6000233B611E4B0E
:104270005B68FB60FB6803F00C03042B02D0082B87
:1042800003D027E0194B3B6127E0FB689B0C03F050
:104290000F03174AD35C7B60FB6803F48033002B69
:1042A00010D0114B5B685B0C03F00103114AD35C27
:1042B000BB607B680D4A03FB02F2BB68B2FBF3F301
:1042C0007B6104E07B680C4A02FB03F37B617B6942
:1042D0003B6102E0054B3B6100BF3B6918461C3760
:1042E000BD4680BC704700BF0010024000127A003B
:1042F000446A0008546A000800093D0080B400AF19
:10430000024B1B681846BD4680BC70471800002051
:1043100080B500AFFFF7F2FF0246054B5B681B0A52
:1043200003F007030349CB5C22FA03F3184680BD70
:10433000001002403C6A000880B500AFFFF7DEFFC6
:104340000246054B5B68DB0A03F007030349CB5CBD
:1043500022FA03F3184680BD001002403C6A0008B0
:1043600080B485B000AF78600A4B1B680A4AA2FB94
:1043700003235B0A7A6802FB03F3FB6000BFFB6860
:104380005A1EFA60002BF9D100BF00BF1437BD469A
:1043900080BC704718000020D34D621080B586B0F5
:1043A00000AF786000233B610023FB607B681B68E3
:1043B00003F00103002B7DD00023FB754F4BDB691D
:1043C00003F08053002B0DD14C4BDB694B4A43F07B
:1043D0008053D361494BDB6903F08053BB60BB68FA
:1043E0000123FB75464B1B6803F48073002B18D127
:1043F000434B1B68424A43F480731360FDF774FC1F
:10440000386108E0FDF770FC02463B69D31A642B63
:1044100001D903236DE03A4B1B6803F48073002B32
:10442000F0D0364B1B6A03F44073FB60FB68002B33
:104430002ED07B685B6803F44073FA689A4227D0F9
:104440002E4B1B6A23F44073FB602E4B01221A6033
:104450002C4B00221A60294AFB681362FB6803F0A8
:104460000103002B14D0FDF73FFC38610AE0FDF793
:104470003BFC02463B69D31A41F28832934201D990
:10448000032336E01D4B1B6A03F00203002BEED022
:104490001A4B1B6A23F440727B685B68174913430D
:1044A0000B62FB7D012B05D1144BDB69134A23F012
:1044B0008053D3617B681B6803F00203002B08D094
:1044C0000E4B5B6823F440427B689B680B491343A7
:1044D0004B607B681B6803F01003002B08D0074B70
:1044E0005B6823F480027B68DB68044913434B60FC
:1044F000002318461837BD4680BD00BF001002409B
:10450000007000404004424280B588B000AF78603F
:1045100000237B610023FB6100233B610023FB60E0
:104520000023BB617B68102B0AD07B68102B00F244
:104530008A807B68012B45D07B68022B75D082E096
:10454000464B5B68FB60454B1B6803F08073002B98
:104550007BD0FB689B0C03F00F03414AD35C3B61AB
:10456000FB6803F48033002B15D03C4B5B685B0C7D
:1045700003F001033B4AD35C7B61FB6803F48033A7
:10458000002B0DD0384A7B69B2FBF3F23B6902FB8A
:1045900003F3FB6104E03B69344A02FB03F3FB6174
:1045A0002E4B5B6803F48003B3F5800F02D1FB69E7
:1045B000BB614AE0FB695B002D4AA2FB03235B0859
:1045C000BB6142E0254B1B6AFB60FB6803F4407350
:1045D000B3F5807F08D1FB6803F00203002B03D002
:1045E0004FF40043BB611FE0FB6803F44073B3F575
:1045F000007F09D1194B5B6A03F00203002B03D043
:1046000049F64043BB610FE0FB6803F44073B3F528
:10461000407F1CD1114B1B6803F40033002B16D0D4
:104620004FF22443BB6112E011E0FFF785FE024622
:104630000A4B5B689B0B03F0030301335B00B2FB87
:10464000F3F3BB6104E000BF02E000BF00E000BF85
:10465000BB6918462037BD4680BD00BF0010024030
:10466000586A0008686A000800127A0000093D00D4
:10467000ABAAAAAA80B582B000AF78607B68002B95
:1046800001D1012341E07B6893F83D30DBB2002B80
:1046900006D17B68002283F83C207868FDF760F83B
:1046A0007B68022283F83D207B681A687B680433AC
:1046B0001946104600F0C2F97B68012283F84620B3
:1046C0007B68012283F83E207B68012283F83F202B
:1046D0007B68012283F840207B68012283F8412017
:1046E0007B68012283F842207B68012283F8432003
:1046F0007B68012283F844207B68012283F84520EF
:104700007B68012283F83D20002318460837BD4608
:1047100080BD000080B485B000AF78607B6893F8FE
:104720003D30DBB2012B01D001233AE07B6802224D
:1047300083F83D207B681B68DA687B681B6842F061
:104740000102DA607B681B68184A93420ED07B68CE
:104750001B68B3F1804F09D07B681B68144A9342F1
:1047600004D07B681B68134A934211D17B681B6895
:104770009B6803F00703FB60FB68062B10D07B6887
:104780001B681A687B681B6842F001021A6007E028
:104790007B681B681A687B681B6842F001021A601C
:1047A000002318461437BD4680BC7047002C0140DA
:1047B000000400400008004080B483B000AF78607F
:1047C0007B681B68DA687B681B6822F00102DA608C
:1047D0007B681B681A6A41F211131340002B0FD13A
:1047E0007B681B681A6A40F244431340002B07D1D0
:1047F0007B681B681A687B681B6822F001021A60DC
:104800007B68012283F83D20002318460C37BD4603
:1048100080BC704780B584B000AF78607B681B684F
:10482000DB68FB607B681B681B69BB60BB6803F0CF
:104830000203002B20D0FB6803F00203002B1BD0E7
:104840007B681B686FF002021A617B6801221A778D
:104850007B681B689B6903F00303002B03D0786817
:1048600000F0D1F805E0786800F0C4F8786800F04E
:10487000D3F87B6800221A77BB6803F00403002B8F
:1048800020D0FB6803F00403002B1BD07B681B685F
:104890006FF004021A617B6802221A777B681B683A
:1048A0009B6903F44073002B03D0786800F0ABF8E9
:1048B00005E0786800F09EF8786800F0ADF87B6855
:1048C00000221A77BB6803F00803002B20D0FB6896
:1048D00003F00803002B1BD07B681B686FF00802F5
:1048E0001A617B6804221A777B681B68DB6903F016
:1048F0000303002B03D0786800F085F805E07868A2
:1049000000F078F8786800F087F87B6800221A7762
:10491000BB6803F01003002B20D0FB6803F01003EA
:10492000002B1BD07B681B686FF010021A617B683C
:1049300008221A777B681B68DB6903F44073002B3D
:1049400003D0786800F05FF805E0786800F052F86E
:10495000786800F061F87B6800221A77BB6803F082
:104960000103002B0CD0FB6803F00103002B07D0E0
:104970007B681B686FF001021A617868FDF7C6F862
:10498000BB6803F08003002B0CD0FB6803F08003AE
:10499000002B07D07B681B686FF080021A61786873
:1049A00000F0C3F8BB6803F04003002B0CD0FB6899
:1049B00003F04003002B07D07B681B686FF04002B8
:1049C0001A61786800F031F8BB6803F02003002B0F
:1049D0000CD0FB6803F02003002B07D07B681B681A
:1049E0006FF020021A61786800F096F800BF103767
:1049F000BD4680BD80B483B000AF786000BF0C3787
:104A0000BD4680BC704780B483B000AF786000BF03
:104A10000C37BD4680BC704780B483B000AF78606F
:104A200000BF0C37BD4680BC704780B483B000AF78
:104A3000786000BF0C37BD4680BC704780B485B03D
:104A400000AF786039607B681B68FB607B682F4A29
:104A500093420BD07B68B3F1804F07D07B682C4A20
:104A6000934203D07B682B4A934208D1FB6823F022
:104A70007003FB603B685B68FA681343FB607B680C
:104A8000224A93420BD07B68B3F1804F07D07B68FA
:104A90001F4A934203D07B681E4A934208D1FB68A9
:104AA00023F44073FB603B68DB68FA681343FB60E8
:104AB000FB6823F080023B685B691343FB607B6803
:104AC000FA681A603B689A687B68DA623B681A6821
:104AD0007B689A627B680D4A934203D13B681A69EE
:104AE0007B681A637B6801225A617B681B6903F04B
:104AF0000103002B05D07B681B6923F001027B6852
:104B00001A6100BF1437BD4680BC7047002C0140BD
:104B1000000400400008004080B483B000AF78601B
:104B200000BF0C37BD4680BC704780B483B000AF77
:104B3000786000BF0C37BD4680BC704780B483B03E
:104B400000AF78607B6803F108027B685A607B687D
:104B50004FF0FF329A607B6803F108027B68DA60ED
:104B60007B6803F108027B681A617B6800221A6087
:104B700000BF0C37BD4680BC704780B483B000AF27
:104B800078607B6800221A6100BF0C37BD4680BC8C
:104B9000704780B485B000AF786039607B685B682F
:104BA000FB603B68FA685A60FB689A683B689A60E9
:104BB000FB689B683A685A60FB683A689A603B6891
:104BC0007A681A617B681B685A1C7B681A6000BF90
:104BD0001437BD4680BC704780B485B000AF7860A4
:104BE00039603B681B68BB60BB68B3F1FF3F03D112
:104BF0007B681B69FB600CE07B680833FB6002E0AC
:104C0000FB685B68FB60FB685B681B68BA689A427C
:104C1000F6D2FB685A683B685A603B685B683A6842
:104C20009A603B68FA689A60FB683A685A603B6829
:104C30007A681A617B681B685A1C7B681A6000BF1F
:104C40001437BD4680BC704780B485B000AF786033
:104C50007B681B69FB607B685B687A6892689A6016
:104C60007B689B687A6852685A60FB685B687A6800
:104C70009A4203D17B689A68FB685A607B6800227D
:104C80001A61FB681B685A1EFB681A60FB681B6888
:104C900018461437BD4680BC7047000080B584B00C
:104CA00000AF786039607B68FB60FB68002B0BD13C
:104CB0004FF0500383F31188BFF36F8FBFF34F8F13
:104CC000BB6000BF00BFFDE701F042FDFB681A6852
:104CD000FB68DB6BF968096C01FB03F31A44FB68A2
:104CE0009A60FB6800229A63FB681A68FB685A6046
:104CF000FB681A68FB68DB6B013BF968096C01FB18
:104D000003F31A44FB68DA60FB68FF2283F844204F
:104D1000FB68FF2283F845203B68002B14D1FB6819
:104D20001B69002B1AD0FB681033184601F06AF992
:104D30000346002B12D00D4B4FF080521A60BFF388
:104D40004F8FBFF36F8F09E0FB6810331846FFF7F2
:104D5000F5FEFB6824331846FFF7F0FE01F028FD4E
:104D6000012318461037BD4680BD00BF04ED00E0AA
:104D700080B58EB002AFF860B9607A603B60FB68C6
:104D8000002B0BD14FF0500383F31188BFF36F8FCB
:104D9000BFF34F8FBB6200BF00BFFDE73B68002B36
:104DA0000BD14FF0500383F31188BFF36F8FBFF324
:104DB0004F8F7B6200BF00BFFDE77B68002B02D0F6
:104DC000BB68002B01D0012300E00023002B0BD196
:104DD0004FF0500383F31188BFF36F8FBFF34F8FF2
:104DE0003B6200BF00BFFDE77B68002B02D1BB68C0
:104DF000002B01D1012300E00023002B0BD14FF049
:104E0000500383F31188BFF36F8FBFF34F8FFB61A4
:104E100000BF00BFFDE748237B617B69482B0BD0B7
:104E20004FF0500383F31188BFF36F8FBFF34F8FA1
:104E3000BB6100BF00BFFDE77B693B68FB62FB6AAB
:104E4000002B09D097F83820FB6A009313467A6844
:104E5000B968F86800F005F8FB6A18463037BD46B7
:104E600080BD80B584B000AFF860B9607A60FB7037
:104E7000BB68002B03D1BB69BA691A6002E0BB6949
:104E80007A681A60BB69FA68DA63BB69BA681A643F
:104E90000121B869FFF702FF00BF1037BD4680BD92
:104EA00080B58EB000AFF860B9607A603B600023D7
:104EB0007B63FB683B633B6B002B0BD14FF05003D4
:104EC00083F31188BFF36F8FBFF34F8FBB6200BFB7
:104ED00000BFFDE7BB68002B03D13B6B1B6C002BB5
:104EE00001D1012300E00023002B0BD14FF0500330
:104EF00083F31188BFF36F8FBFF34F8F7B6200BFC7
:104F000000BFFDE73B68022B03D13B6BDB6B012B42
:104F100001D1012300E00023002B0BD14FF05003FF
:104F200083F31188BFF36F8FBFF34F8F3B6200BFD6
:104F300000BFFDE701F0BCF90346002B02D17B68FE
:104F4000002B01D1012300E00023002B0BD14FF0F7
:104F5000500383F31188BFF36F8FBFF34F8FFB6153
:104F600000BF00BFFDE701F0F3FB3B6B9A6B3B6BAF
:104F7000DB6B9A4202D33B68022B29D13A68B968AD
:104F8000386B00F091FAF8623B6B5B6A002B10D033
:104F90003B6B2433184601F035F80346002B13D041
:104FA0003F4B4FF080521A60BFF34F8FBFF36F8FAC
:104FB0000AE0FB6A002B07D0394B4FF080521A6091
:104FC000BFF34F8FBFF36F8F01F0F2FB012363E05C
:104FD0007B68002B03D101F0EBFB00235CE07B6BD3
:104FE000002B06D107F11403184601F06FF80123D6
:104FF0007B6301F0DDFB00F0E9FD01F0A9FB3B6BF9
:1050000093F844305BB2B3F1FF3F03D13B6B002216
:1050100083F844203B6B93F845305BB2B3F1FF3F1C
:1050200003D13B6B002283F8452001F0C1FB3A1D00
:1050300007F114031146184601F05EF80346002BF1
:1050400024D1386B00F01AFB0346002B18D03B6BC1
:1050500010337A681146184600F0AEFF386B00F046
:10506000A5FA00F0C1FD0346002B7FF47CAF0C4B8A
:105070004FF080521A60BFF34F8FBFF36F8F72E70C
:10508000386B00F093FA00F0AFFD6CE7386B00F07E
:105090008DFA00F0A9FD002318463837BD4680BDC3
:1050A00004ED00E080B590B000AFF860B9607A60C0
:1050B0003B60FB68BB63BB6B002B0BD14FF0500315
:1050C00083F31188BFF36F8FBFF34F8FBB6200BFB5
:1050D00000BFFDE7BB68002B03D1BB6B1B6C002B33
:1050E00001D1012300E00023002B0BD14FF050032E
:1050F00083F31188BFF36F8FBFF34F8F7B6200BFC5
:1051000000BFFDE73B68022B03D1BB6BDB6B012BC0
:1051100001D1012300E00023002B0BD14FF05003FD
:1051200083F31188BFF36F8FBFF34F8F3B6200BFD4
:1051300000BFFDE701F0D4FBEFF311824FF0500305
:1051400083F31188BFF36F8FBFF34F8FFA61BB6199
:10515000FB697B63BB6B9A6BBB6BDB6B9A4202D3C5
:105160003B68022B2FD1BB6B93F8453087F8333067
:10517000BB6B9B6BFB623A68B968B86B00F094F943
:1051800097F93330B3F1FF3F12D1BB6B5B6A002B51
:1051900016D0BB6B2433184600F034FF0346002BB7
:1051A0000ED07B68002B0BD07B6801221A6007E0D1
:1051B00097F833300133DBB25AB2BB6B83F845202A
:1051C0000123FB6301E00023FB637B6B7B617B6955
:1051D00083F3118800BFFB6B18464037BD4680BD86
:1051E00080B58CB000AFF860B9607A600023FB62D4
:1051F000FB68BB62BB6A002B0BD14FF0500383F3FB
:105200001188BFF36F8FBFF34F8F3B6200BF00BFAA
:10521000FDE7BB68002B03D1BB6A1B6C002B01D1DF
:10522000012300E00023002B0BD14FF0500383F348
:105230001188BFF36F8FBFF34F8FFB6100BF00BFBB
:10524000FDE701F035F80346002B02D17B68002B07
:1052500001D1012300E00023002B0BD14FF05003BC
:1052600083F31188BFF36F8FBFF34F8FBB6100BF14
:1052700000BFFDE701F06CFABB6A9B6B7B627B6A47
:10528000002B1FD0B968B86A00F06AF97B6A5A1E11
:10529000BB6A9A63BB6A1B69002B0FD0BB6A1033D1
:1052A000184600F0AFFE0346002B07D03C4B4FF0F2
:1052B00080521A60BFF34F8FBFF36F8F01F078FAFF
:1052C000012369E07B68002B03D101F071FA002310
:1052D00062E0FB6A002B06D107F11003184600F0CC
:1052E000F5FE0123FB6201F063FA00F06FFC01F0B0
:1052F0002FFABB6A93F844305BB2B3F1FF3F03D19E
:10530000BB6A002283F84420BB6A93F845305BB245
:10531000B3F1FF3F03D1BB6A002283F8452001F0BF
:1053200047FA3A1D07F110031146184600F0E4FE53
:105330000346002B23D1B86A00F08AF90346002BFC
:1053400017D0BB6A24337A681146184600F034FE41
:10535000B86A00F02BF900F047FC0346002B89D116
:105360000F4B4FF080521A60BFF34F8FBFF36F8F18
:1053700080E7B86A00F01AF900F036FC7AE7B86AFC
:1053800000F014F900F030FCB86A00F061F903464F
:10539000002B3FF46FAF002318463037BD4680BD69
:1053A00004ED00E080B58EB000AFF860B9607A60BF
:1053B000FB683B633B6B002B0BD14FF0500383F337
:1053C0001188BFF36F8FBFF34F8F3B6200BF00BFE9
:1053D000FDE7BB68002B03D13B6B1B6C002B01D19D
:1053E000012300E00023002B0BD14FF0500383F387
:1053F0001188BFF36F8FBFF34F8FFB6100BF00BFFA
:10540000FDE701F06DFAEFF311824FF0500383F3E3
:105410001188BFF36F8FBFF34F8FBA617B61BB6998
:10542000FB623B6B9B6BBB62BB6A002B2FD03B6B61
:1054300093F8443087F82730B968386B00F090F85B
:10544000BB6A5A1E3B6B9A6397F92730B3F1FF3F53
:1054500012D13B6B1B69002B16D03B6B10331846E7
:1054600000F0D0FD0346002B0ED07B68002B0BD044
:105470007B6801221A6007E097F827300133DBB21E
:105480005AB23B6B83F8442001237B6301E0002385
:105490007B63FB6A3B613B6983F3118800BF7B6BD5
:1054A00018463837BD4680BD80B586B000AFF8607D
:1054B000B9607A6000233B61FB689B6B7B61FB6892
:1054C0001B6C002B43D07B68002B19D1FB685868FC
:1054D000FB681B6C1A46B96801F06EFAFB685A68E3
:1054E000FB681B6C1A44FB685A60FB685A68FB68CF
:1054F0009B689A422BD3FB681A68FB685A6026E0C7
:10550000FB68D868FB681B6C1A46B96801F054FA4E
:10551000FB68DA68FB681B6C5B421A44FB68DA6064
:10552000FB68DA68FB681B689A4207D2FB689A68D6
:10553000FB681B6C5B421A44FB68DA607B68022BD9
:1055400005D17B69002B02D07B69013B7B617B69C4
:105550005A1CFB689A633B6918461837BD4680BDE4
:1055600080B582B000AF786039607B681B6C002B1F
:1055700018D07B68DA687B681B6C1A447B68DA6039
:105580007B68DA687B689B689A4203D37B681A68F9
:105590007B68DA607B68D9687B681B6C1A46386860
:1055A00001F00AFA00BF0837BD4680BD80B584B05F
:1055B00000AF786001F0CCF87B6893F84530FB735E
:1055C00011E07B685B6A002B12D07B68243318469D
:1055D00000F018FD0346002B01D000F0E9FDFB7B35
:1055E000013BDBB2FB7397F90F30002BE9DC00E0E5
:1055F00000BF7B68FF2283F8452001F0D9F801F055
:10560000A7F87B6893F84430BB7311E07B681B6993
:10561000002B12D07B681033184600F0F3FC0346D1
:10562000002B01D000F0C4FDBB7B013BDBB2BB73A0
:1056300097F90E30002BE9DC00E000BF7B68FF2209
:1056400083F8442001F0B4F800BF1037BD4680BD98
:1056500080B584B000AF786001F07AF87B689B6B0E
:10566000002B02D10123FB6001E00023FB6001F06D
:105670009FF8FB6818461037BD4680BD80B584B0E2
:1056800000AF786001F064F87B689A6B7B68DB6B35
:105690009A4202D10123FB6001E00023FB6001F08C
:1056A00087F8FB6818461037BD4680BD80B485B0CA
:1056B00000AF786039600023FB6014E00E4AFB689D
:1056C00052F83330002B0BD10B49FB683A6841F894
:1056D0003320094AFB68DB0013447A685A6006E00D
:1056E000FB680133FB60FB68032BE7D900BF00BFF9
:1056F0001437BD4680BC70478417002080B58EB03B
:1057000004AFF860B9607A603B607B6B002B0BD113
:105710004FF0500383F31188BFF36F8FBFF34F8FA8
:105720003B6200BF00BFFDE7BB6B002B0BD14FF00E
:10573000500383F31188BFF36F8FBFF34F8FFB616B
:1057400000BF00BFFDE74C233B613B694C2B0BD0F6
:105750004FF0500383F31188BFF36F8FBFF34F8F68
:10576000BB6100BF00BFFDE73B69BB6B002B1AD0DC
:105770007B6B002B17D0BB6B7B627B6A7A6B1A63E7
:10578000002303937B6A029307F1140301933B6B9D
:1057900000933B687A68B968F86800F00BF8786A9B
:1057A00000F092F801E000237B617B6918462837FE
:1057B000BD4680BD80B588B000AFF860B9607A6042
:1057C0003B603B6B186B7B689B001A46A52101F080
:1057D000C7F83B6B1A6B7B6803F18043013B9B006E
:1057E0001344BB61BB6923F00703BB61BB6903F0D2
:1057F0000703002B0BD04FF0500383F31188BFF346
:105800006F8FBFF34F8F7B6100BF00BFFDE7BB68A9
:10581000002B1FD00023FB6112E0BA68FB69134420
:1058200019783A6BFB69134434330A461A70BA6824
:10583000FB6913441B78002B06D0FB690133FB6125
:10584000FB690F2BE9D900E000BF3B6B002283F816
:10585000432003E03B6B002283F83420BB6A052B16
:1058600001D90523BB623B6BBA6ADA623B6B043336
:105870001846FFF782F93B6B18331846FFF77DF99E
:105880003B6B3A6B1A61BB6AC3F106023B6B9A61D0
:105890003B6B3A6B5A623B6B00225A643B6B0022B3
:1058A00083F848203A68F968B86900F04FFE02466C
:1058B0003B6B1A60FB6A002B02D0FB6A3A6B1A60E2
:1058C00000BF2037BD4680BD80B582B000AF786094
:1058D00000F03EFF2A4B1B680133294A1360294B15
:1058E0001B68002B09D1274A7B681360244B1B6877
:1058F000012B10D100F080FC0DE0234B1B68002B26
:1059000009D1204B1B68DA6A7B68DB6A9A4202D8AD
:105910001C4A7B6813601D4B1B6801331B4A1360D4
:105920007B68DB6A01229A40194B1B681343184AB3
:1059300013607B68DA6A13469B0013449B00154A88
:105940001A447B68043319461046FFF722F900F029
:105950002FFF0D4B1B68002B0ED00A4B1B68DA6A19
:105960007B68DB6A9A4207D20B4B4FF080521A6079
:10597000BFF34F8FBFF36F8F00BF0837BD4680BDA9
:1059800064180020A4170020701800208018002040
:105990006C180020A817002004ED00E080B58AB044
:1059A00000AF7860396000237B627B68002B0BD1ED
:1059B0004FF0500383F31188BFF36F8FBFF34F8F06
:1059C0007B6100BF00BFFDE73B68002B0BD14FF0B0
:1059D000500383F31188BFF36F8FBFF34F8F3B6189
:1059E00000BF00BFFDE72A4B1B68002B0BD04FF018
:1059F000500383F31188BFF36F8FBFF34F8FFB60AA
:105A000000BF00BFFDE700F0E1F8224B1B683B62DE
:105A10007B681B683A681344FB617B681B683A6AC1
:105A20009A420BD27B681B68FA699A4211D2FA69D2
:105A30003B6A9A420DD901237B620AE07B681B68AE
:105A4000FA699A4203D3FA693B6A9A4201D901235F
:105A50007B627B68FA691A607B6A002B06D0FA6960
:105A60003B6AD31A0021184600F01CFD00F0BCF878
:105A7000B861BB69002B07D1074B4FF080521A6009
:105A8000BFF34F8FBFF36F8F00BF2837BD4680BD78
:105A90008C1800206818002004ED00E080B584B068
:105AA00000AF78600023FB607B68002B18D0144B9C
:105AB0001B68002B0BD04FF0500383F31188BFF30A
:105AC0006F8FBFF34F8FBB6000BF00BFFDE700F0DB
:105AD0007DF80021786800F0E5FC00F085F8F860BA
